{
  "abi": [
    {
      "inputs": [
        {
          "internalType": "address",
          "name": "_tokenX",
          "type": "address"
        },
        {
          "internalType": "address",
          "name": "_tokenY",
          "type": "address"
        }
      ],
      "stateMutability": "nonpayable",
      "type": "constructor"
    },
    {
      "anonymous": false,
      "inputs": [
        {
          "indexed": true,
          "internalType": "address",
          "name": "owner",
          "type": "address"
        },
        {
          "indexed": true,
          "internalType": "address",
          "name": "spender",
          "type": "address"
        },
        {
          "indexed": false,
          "internalType": "uint256",
          "name": "value",
          "type": "uint256"
        }
      ],
      "name": "Approval",
      "type": "event"
    },
    {
      "anonymous": false,
      "inputs": [
        {
          "indexed": true,
          "internalType": "address",
          "name": "from",
          "type": "address"
        },
        {
          "indexed": true,
          "internalType": "address",
          "name": "to",
          "type": "address"
        },
        {
          "indexed": false,
          "internalType": "uint256",
          "name": "value",
          "type": "uint256"
        }
      ],
      "name": "Transfer",
      "type": "event"
    },
    {
      "inputs": [
        {
          "internalType": "uint256",
          "name": "tokenXAmount",
          "type": "uint256"
        },
        {
          "internalType": "uint256",
          "name": "tokenYAmount",
          "type": "uint256"
        },
        {
          "internalType": "uint256",
          "name": "minimumLPTokenAmount",
          "type": "uint256"
        }
      ],
      "name": "addLiquidity",
      "outputs": [
        {
          "internalType": "uint256",
          "name": "LPTokenAmount",
          "type": "uint256"
        }
      ],
      "stateMutability": "nonpayable",
      "type": "function"
    },
    {
      "inputs": [
        {
          "internalType": "address",
          "name": "owner",
          "type": "address"
        },
        {
          "internalType": "address",
          "name": "spender",
          "type": "address"
        }
      ],
      "name": "allowance",
      "outputs": [
        {
          "internalType": "uint256",
          "name": "",
          "type": "uint256"
        }
      ],
      "stateMutability": "view",
      "type": "function"
    },
    {
      "inputs": [
        {
          "internalType": "address",
          "name": "spender",
          "type": "address"
        },
        {
          "internalType": "uint256",
          "name": "amount",
          "type": "uint256"
        }
      ],
      "name": "approve",
      "outputs": [
        {
          "internalType": "bool",
          "name": "",
          "type": "bool"
        }
      ],
      "stateMutability": "nonpayable",
      "type": "function"
    },
    {
      "inputs": [
        {
          "internalType": "address",
          "name": "account",
          "type": "address"
        }
      ],
      "name": "balanceOf",
      "outputs": [
        {
          "internalType": "uint256",
          "name": "",
          "type": "uint256"
        }
      ],
      "stateMutability": "view",
      "type": "function"
    },
    {
      "inputs": [],
      "name": "decimals",
      "outputs": [
        {
          "internalType": "uint8",
          "name": "",
          "type": "uint8"
        }
      ],
      "stateMutability": "view",
      "type": "function"
    },
    {
      "inputs": [
        {
          "internalType": "address",
          "name": "spender",
          "type": "address"
        },
        {
          "internalType": "uint256",
          "name": "subtractedValue",
          "type": "uint256"
        }
      ],
      "name": "decreaseAllowance",
      "outputs": [
        {
          "internalType": "bool",
          "name": "",
          "type": "bool"
        }
      ],
      "stateMutability": "nonpayable",
      "type": "function"
    },
    {
      "inputs": [
        {
          "internalType": "address",
          "name": "spender",
          "type": "address"
        },
        {
          "internalType": "uint256",
          "name": "addedValue",
          "type": "uint256"
        }
      ],
      "name": "increaseAllowance",
      "outputs": [
        {
          "internalType": "bool",
          "name": "",
          "type": "bool"
        }
      ],
      "stateMutability": "nonpayable",
      "type": "function"
    },
    {
      "inputs": [],
      "name": "name",
      "outputs": [
        {
          "internalType": "string",
          "name": "",
          "type": "string"
        }
      ],
      "stateMutability": "view",
      "type": "function"
    },
    {
      "inputs": [
        {
          "internalType": "uint256",
          "name": "LPTokenAmount",
          "type": "uint256"
        },
        {
          "internalType": "uint256",
          "name": "minimumTokenXAmount",
          "type": "uint256"
        },
        {
          "internalType": "uint256",
          "name": "minimumTokenYAmount",
          "type": "uint256"
        }
      ],
      "name": "removeLiquidity",
      "outputs": [
        {
          "internalType": "uint256",
          "name": "_tx",
          "type": "uint256"
        },
        {
          "internalType": "uint256",
          "name": "_ty",
          "type": "uint256"
        }
      ],
      "stateMutability": "nonpayable",
      "type": "function"
    },
    {
      "inputs": [
        {
          "internalType": "uint256",
          "name": "tokenXAmount",
          "type": "uint256"
        },
        {
          "internalType": "uint256",
          "name": "tokenYAmount",
          "type": "uint256"
        },
        {
          "internalType": "uint256",
          "name": "tokenMinimumOutputAmount",
          "type": "uint256"
        }
      ],
      "name": "swap",
      "outputs": [
        {
          "internalType": "uint256",
          "name": "outputAmount",
          "type": "uint256"
        }
      ],
      "stateMutability": "nonpayable",
      "type": "function"
    },
    {
      "inputs": [],
      "name": "symbol",
      "outputs": [
        {
          "internalType": "string",
          "name": "",
          "type": "string"
        }
      ],
      "stateMutability": "view",
      "type": "function"
    },
    {
      "inputs": [],
      "name": "totalSupply",
      "outputs": [
        {
          "internalType": "uint256",
          "name": "",
          "type": "uint256"
        }
      ],
      "stateMutability": "view",
      "type": "function"
    },
    {
      "inputs": [
        {
          "internalType": "address",
          "name": "to",
          "type": "address"
        },
        {
          "internalType": "uint256",
          "name": "amount",
          "type": "uint256"
        }
      ],
      "name": "transfer",
      "outputs": [
        {
          "internalType": "bool",
          "name": "",
          "type": "bool"
        }
      ],
      "stateMutability": "nonpayable",
      "type": "function"
    },
    {
      "inputs": [
        {
          "internalType": "address",
          "name": "from",
          "type": "address"
        },
        {
          "internalType": "address",
          "name": "to",
          "type": "address"
        },
        {
          "internalType": "uint256",
          "name": "amount",
          "type": "uint256"
        }
      ],
      "name": "transferFrom",
      "outputs": [
        {
          "internalType": "bool",
          "name": "",
          "type": "bool"
        }
      ],
      "stateMutability": "nonpayable",
      "type": "function"
    }
  ],
  "bytecode": {
    "object": "0x60806040523480156200001157600080fd5b50604051620018d8380380620018d88339810160408190526200003491620000f7565b6040518060400160405280600781526020016626282a37b5b2b760c91b8152506040518060400160405280600381526020016213141560ea1b8152508160039081620000819190620001d4565b506004620000908282620001d4565b5050600780546001600160a01b03199081163317909155600580546001600160a01b039586169083161790556006805493909416921691909117909155506103e8601355620002a0565b80516001600160a01b0381168114620000f257600080fd5b919050565b600080604083850312156200010b57600080fd5b6200011683620000da565b91506200012660208401620000da565b90509250929050565b634e487b7160e01b600052604160045260246000fd5b600181811c908216806200015a57607f821691505b6020821081036200017b57634e487b7160e01b600052602260045260246000fd5b50919050565b601f821115620001cf57600081815260208120601f850160051c81016020861015620001aa5750805b601f850160051c820191505b81811015620001cb57828155600101620001b6565b5050505b505050565b81516001600160401b03811115620001f057620001f06200012f565b620002088162000201845462000145565b8462000181565b602080601f831160018114620002405760008415620002275750858301515b600019600386901b1c1916600185901b178555620001cb565b600085815260208120601f198616915b82811015620002715788860151825594840194600190910190840162000250565b5085821015620002905787850151600019600388901b60f8161c191681555b5050505050600190811b01905550565b61162880620002b06000396000f3fe608060405234801561001057600080fd5b50600436106100ea5760003560e01c806370a082311161008c5780639d9892cd116100665780639d9892cd146101e3578063a457c2d7146101f6578063a9059cbb14610209578063dd62ed3e1461021c57600080fd5b806370a082311461018a578063857620e1146101b357806395d89b41146101db57600080fd5b806323b872dd116100c857806323b872dd14610142578063313ce567146101555780633950935114610164578063422f10431461017757600080fd5b806306fdde03146100ef578063095ea7b31461010d57806318160ddd14610130575b600080fd5b6100f761022f565b6040516101049190611310565b60405180910390f35b61012061011b366004611375565b6102c1565b6040519015158152602001610104565b6002545b604051908152602001610104565b61012061015036600461139f565b6102db565b60405160128152602001610104565b610120610172366004611375565b6102ff565b6101346101853660046113db565b610321565b610134610198366004611407565b6001600160a01b031660009081526020819052604090205490565b6101c66101c13660046113db565b6107bd565b60408051928352602083019190915201610104565b6100f7610910565b6101346101f13660046113db565b61091f565b610120610204366004611375565b610c17565b610120610217366004611375565b610c97565b61013461022a366004611429565b610ca5565b60606003805461023e9061145c565b80601f016020809104026020016040519081016040528092919081815260200182805461026a9061145c565b80156102b75780601f1061028c576101008083540402835291602001916102b7565b820191906000526020600020905b81548152906001019060200180831161029a57829003601f168201915b5050505050905090565b6000336102cf818585610cd0565b60019150505b92915050565b6000336102e9858285610df4565b6102f4858585610e6e565b506001949350505050565b6000336102cf8185856103128383610ca5565b61031c91906114a6565b610cd0565b600080841180156103325750600083115b61033b57600080fd5b6103458484611012565b600080610359600c54600a54600b5461124f565b9050600d5481111561048f57610376600d54600b54600a5461124f565b9050600c54811461038657600080fd5b6005546040516323b872dd60e01b81526001600160a01b03909116906323b872dd906103ba903390309086906004016114b9565b6020604051808303816000875af11580156103d9573d6000803e3d6000fd5b505050506040513d601f19601f820116820180604052508101906103fd91906114dd565b506006546040516323b872dd60e01b81526001600160a01b03909116906323b872dd9061043290339030908a906004016114b9565b6020604051808303816000875af1158015610451573d6000803e3d6000fd5b505050506040513d601f19601f8201168201806040525081019061047591906114dd565b5061048861048386836114ff565b611293565b915061059d565b600d54811461049d57600080fd5b6005546040516323b872dd60e01b81526001600160a01b03909116906323b872dd906104d190339030908b906004016114b9565b6020604051808303816000875af11580156104f0573d6000803e3d6000fd5b505050506040513d601f19601f8201168201806040525081019061051491906114dd565b506006546040516323b872dd60e01b81526001600160a01b03909116906323b872dd90610549903390309086906004016114b9565b6020604051808303816000875af1158015610568573d6000803e3d6000fd5b505050506040513d601f19601f8201168201806040525081019061058c91906114dd565b5061059a61048387836114ff565b91505b600d54811115610624576105d4600d54600c546105ba91906114ff565b600b54600a546105ca91906114ff565b610483919061152c565b6001036105e5576012829055610615565b60125460016105fd600d54600c546105ba91906114ff565b6106079190611540565b61061191906114ff565b6012555b61061f8186611012565b610682565b610637600d54600c546105ba91906114ff565b600103610648576012829055610678565b6012546001610660600d54600c546105ba91906114ff565b61066a9190611540565b61067491906114ff565b6012555b6106828682611012565b6005546040516370a0823160e01b81523060048201526001600160a01b03909116906370a0823190602401602060405180830381865afa1580156106ca573d6000803e3d6000fd5b505050506040513d601f19601f820116820180604052508101906106ee9190611553565b600e556006546040516370a0823160e01b81523060048201526001600160a01b03909116906370a0823190602401602060405180830381865afa158015610739573d6000803e3d6000fd5b505050506040513d601f19601f8201168201806040525081019061075d9190611553565b600f5560125484111561076f57600080fd5b60125433600090815260116020526040812080549091906107919084906114a6565b9091555050601254601080546000906107ab9084906114a6565b90915550506012549695505050505050565b600080846000036107cd57600080fd5b336000908152601160205260409020548511156107e957600080fd5b3360009081526011602052604081208054879290610808908490611540565b9091555050601054620186a09060009087906108259084906114ff565b61082f919061152c565b905061083c600a8261156c565b15610856578660105461084f919061152c565b9050600191505b86601060008282546108689190611540565b909155506108769050611303565b60008282600a54610887919061152c565b61089191906114ff565b905060008383600b546108a4919061152c565b6108ae91906114ff565b90508188111580156108c05750808711155b6108c957600080fd5b81600a60008282546108db9190611540565b9250508190555080600b60008282546108f49190611540565b909155506109029050611303565b909890975095505050505050565b60606004805461023e9061145c565b600083158061092c575082155b61093557600080fd5b6000808515610945578585610948565b84865b9092509050610955611303565b85600003610a1a576006546040516323b872dd60e01b81526001600160a01b03909116906323b872dd90610991903390309087906004016114b9565b6020604051808303816000875af11580156109b0573d6000803e3d6000fd5b505050506040513d601f19601f820116820180604052508101906109d491906114dd565b50600a5482600b546109e691906114a6565b600a54600b546109f691906114ff565b610a009190611580565b610a09906115ae565b610a1391906115ca565b9250610ad3565b6005546040516323b872dd60e01b81526001600160a01b03909116906323b872dd90610a4e903390309087906004016114b9565b6020604051808303816000875af1158015610a6d573d6000803e3d6000fd5b505050506040513d601f19601f82011682018060405250810190610a9191906114dd565b50600b5482600a54610aa391906114a6565b600b54600a54610ab391906114ff565b610abd9190611580565b610ac6906115ae565b610ad091906115ca565b92505b610adb611303565b601354610ae9600182611540565b610af390856114ff565b610afd919061152c565b925085600003610b825760055460405163a9059cbb60e01b8152336004820152602481018590526001600160a01b039091169063a9059cbb906044016020604051808303816000875af1158015610b58573d6000803e3d6000fd5b505050506040513d601f19601f82011682018060405250810190610b7c91906114dd565b50610bf9565b60065460405163a9059cbb60e01b8152336004820152602481018590526001600160a01b039091169063a9059cbb906044016020604051808303816000875af1158015610bd3573d6000803e3d6000fd5b505050506040513d601f19601f82011682018060405250810190610bf791906114dd565b505b610c01611303565b83831015610c0e57600080fd5b50509392505050565b60003381610c258286610ca5565b905083811015610c8a5760405162461bcd60e51b815260206004820152602560248201527f45524332303a2064656372656173656420616c6c6f77616e63652062656c6f77604482015264207a65726f60d81b60648201526084015b60405180910390fd5b6102f48286868403610cd0565b6000336102cf818585610e6e565b6001600160a01b03918216600090815260016020908152604080832093909416825291909152205490565b6001600160a01b038316610d325760405162461bcd60e51b8152602060048201526024808201527f45524332303a20617070726f76652066726f6d20746865207a65726f206164646044820152637265737360e01b6064820152608401610c81565b6001600160a01b038216610d935760405162461bcd60e51b815260206004820152602260248201527f45524332303a20617070726f766520746f20746865207a65726f206164647265604482015261737360f01b6064820152608401610c81565b6001600160a01b0383811660008181526001602090815260408083209487168084529482529182902085905590518481527f8c5be1e5ebec7d5bd14f71427d1e84f3dd0314c0f7b2291e5b200ac8c7c3b925910160405180910390a3505050565b6000610e008484610ca5565b90506000198114610e685781811015610e5b5760405162461bcd60e51b815260206004820152601d60248201527f45524332303a20696e73756666696369656e7420616c6c6f77616e63650000006044820152606401610c81565b610e688484848403610cd0565b50505050565b6001600160a01b038316610ed25760405162461bcd60e51b815260206004820152602560248201527f45524332303a207472616e736665722066726f6d20746865207a65726f206164604482015264647265737360d81b6064820152608401610c81565b6001600160a01b038216610f345760405162461bcd60e51b815260206004820152602360248201527f45524332303a207472616e7366657220746f20746865207a65726f206164647260448201526265737360e81b6064820152608401610c81565b6001600160a01b03831660009081526020819052604090205481811015610fac5760405162461bcd60e51b815260206004820152602660248201527f45524332303a207472616e7366657220616d6f756e7420657863656564732062604482015265616c616e636560d01b6064820152608401610c81565b6001600160a01b03848116600081815260208181526040808320878703905593871680835291849020805487019055925185815290927fddf252ad1be2c89b69c2b068fc378daa952ba7f163c4a11628f55a4df523b3ef910160405180910390a3610e68565b6005546040516370a0823160e01b815230600482015283916001600160a01b0316906370a0823190602401602060405180830381865afa15801561105a573d6000803e3d6000fd5b505050506040513d601f19601f8201168201806040525081019061107e9190611553565b61108891906114a6565b600a556006546040516370a0823160e01b815230600482015282916001600160a01b0316906370a0823190602401602060405180830381865afa1580156110d3573d6000803e3d6000fd5b505050506040513d601f19601f820116820180604052508101906110f79190611553565b61110191906114a6565b600b55600e541580156111145750600f54155b1561122a57600e546005546040516370a0823160e01b815230600482015284916001600160a01b0316906370a0823190602401602060405180830381865afa158015611164573d6000803e3d6000fd5b505050506040513d601f19601f820116820180604052508101906111889190611553565b61119291906114a6565b61119c9190611540565b600c55600f546006546040516370a0823160e01b815230600482015283916001600160a01b0316906370a0823190602401602060405180830381865afa1580156111ea573d6000803e3d6000fd5b505050506040513d601f19601f8201168201806040525081019061120e9190611553565b61121891906114a6565b6112229190611540565b600d55611235565b600c829055600d8190555b611248600b54600a5461048391906114ff565b6009555050565b600080841161125d57600080fd5b60008311801561126d5750600082115b61127657600080fd5b8261128183866114ff565b61128b919061152c565b949350505050565b600060038211156112f457508060006112ad60028361152c565b6112b89060016114a6565b90505b818110156112ee579050806002816112d3818661152c565b6112dd91906114a6565b6112e7919061152c565b90506112bb565b50919050565b81156112fe575060015b919050565b61130e600080611012565b565b600060208083528351808285015260005b8181101561133d57858101830151858201604001528201611321565b506000604082860101526040601f19601f8301168501019250505092915050565b80356001600160a01b03811681146112fe57600080fd5b6000806040838503121561138857600080fd5b6113918361135e565b946020939093013593505050565b6000806000606084860312156113b457600080fd5b6113bd8461135e565b92506113cb6020850161135e565b9150604084013590509250925092565b6000806000606084860312156113f057600080fd5b505081359360208301359350604090920135919050565b60006020828403121561141957600080fd5b6114228261135e565b9392505050565b6000806040838503121561143c57600080fd5b6114458361135e565b91506114536020840161135e565b90509250929050565b600181811c9082168061147057607f821691505b6020821081036112ee57634e487b7160e01b600052602260045260246000fd5b634e487b7160e01b600052601160045260246000fd5b808201808211156102d5576102d5611490565b6001600160a01b039384168152919092166020820152604081019190915260600190565b6000602082840312156114ef57600080fd5b8151801515811461142257600080fd5b80820281158282048414176102d5576102d5611490565b634e487b7160e01b600052601260045260246000fd5b60008261153b5761153b611516565b500490565b818103818111156102d5576102d5611490565b60006020828403121561156557600080fd5b5051919050565b60008261157b5761157b611516565b500690565b60008261158f5761158f611516565b600160ff1b8214600019841416156115a9576115a9611490565b500590565b6000600160ff1b82016115c3576115c3611490565b5060000390565b80820182811260008312801582168215821617156115ea576115ea611490565b50509291505056fea26469706673582212205e3664136665ba1dc3b36d1b86d4d31ee7448abe234d1a265bf9882def2d0d7a64736f6c63430008130033",
    "linkReferences": {}
  },
  "methodIdentifiers": {
    "addLiquidity(uint256,uint256,uint256)": "422f1043",
    "allowance(address,address)": "dd62ed3e",
    "approve(address,uint256)": "095ea7b3",
    "balanceOf(address)": "70a08231",
    "decimals()": "313ce567",
    "decreaseAllowance(address,uint256)": "a457c2d7",
    "increaseAllowance(address,uint256)": "39509351",
    "name()": "06fdde03",
    "removeLiquidity(uint256,uint256,uint256)": "857620e1",
    "swap(uint256,uint256,uint256)": "9d9892cd",
    "symbol()": "95d89b41",
    "totalSupply()": "18160ddd",
    "transfer(address,uint256)": "a9059cbb",
    "transferFrom(address,address,uint256)": "23b872dd"
  },
  "id": 21
}