{
  "abi": [
    {
      "inputs": [
        {
          "internalType": "contract IPriceOracle",
          "name": "_dreamOracle",
          "type": "address"
        },
        {
          "internalType": "address",
          "name": "_tokenAddress",
          "type": "address"
        }
      ],
      "stateMutability": "nonpayable",
      "type": "constructor"
    },
    {
      "inputs": [
        {
          "internalType": "address",
          "name": "tokenAddress",
          "type": "address"
        },
        {
          "internalType": "uint256",
          "name": "amount",
          "type": "uint256"
        }
      ],
      "name": "borrow",
      "outputs": [],
      "stateMutability": "nonpayable",
      "type": "function"
    },
    {
      "inputs": [
        {
          "internalType": "address",
          "name": "tokenAddress",
          "type": "address"
        },
        {
          "internalType": "uint256",
          "name": "amount",
          "type": "uint256"
        }
      ],
      "name": "deposit",
      "outputs": [],
      "stateMutability": "payable",
      "type": "function"
    },
    {
      "inputs": [
        {
          "internalType": "address",
          "name": "tokenAddress",
          "type": "address"
        }
      ],
      "name": "getAccruedSupplyAmount",
      "outputs": [
        {
          "internalType": "uint256",
          "name": "amount",
          "type": "uint256"
        }
      ],
      "stateMutability": "nonpayable",
      "type": "function"
    },
    {
      "inputs": [
        {
          "internalType": "address",
          "name": "tokenAddress",
          "type": "address"
        }
      ],
      "name": "initializeLendingProtocol",
      "outputs": [],
      "stateMutability": "payable",
      "type": "function"
    },
    {
      "inputs": [
        {
          "internalType": "address",
          "name": "user",
          "type": "address"
        },
        {
          "internalType": "address",
          "name": "tokenAddress",
          "type": "address"
        },
        {
          "internalType": "uint256",
          "name": "amount",
          "type": "uint256"
        }
      ],
      "name": "liquidate",
      "outputs": [],
      "stateMutability": "nonpayable",
      "type": "function"
    },
    {
      "inputs": [
        {
          "internalType": "address",
          "name": "tokenAddress",
          "type": "address"
        },
        {
          "internalType": "uint256",
          "name": "amount",
          "type": "uint256"
        }
      ],
      "name": "repay",
      "outputs": [],
      "stateMutability": "nonpayable",
      "type": "function"
    },
    {
      "inputs": [
        {
          "internalType": "address",
          "name": "tokenAddress",
          "type": "address"
        },
        {
          "internalType": "uint256",
          "name": "amount",
          "type": "uint256"
        }
      ],
      "name": "withdraw",
      "outputs": [],
      "stateMutability": "nonpayable",
      "type": "function"
    },
    {
      "stateMutability": "payable",
      "type": "receive"
    }
  ],
  "bytecode": {
    "object": "0x608060405234801561001057600080fd5b5060405161151838038061151883398101604081905261002f91610082565b600180546001600160a01b039384166001600160a01b031991821617909155600080549290931691161790556032600d55604b600e556100bc565b6001600160a01b038116811461007f57600080fd5b50565b6000806040838503121561009557600080fd5b82516100a08161006a565b60208401519092506100b18161006a565b809150509250929050565b61144d806100cb6000396000f3fe6080604052600436106100745760003560e01c80634b8a35291161004e5780634b8a3529146100d557806353415e44146100f55780638f1e977914610127578063f3fef3a31461013a57600080fd5b806322867d781461008057806326c01303146100a257806347e7ef24146100c257600080fd5b3661007b57005b600080fd5b34801561008c57600080fd5b506100a061009b3660046111ab565b61015a565b005b3480156100ae57600080fd5b506100a06100bd3660046111d5565b6102ef565b6100a06100d03660046111ab565b610307565b3480156100e157600080fd5b506100a06100f03660046111ab565b610577565b34801561010157600080fd5b50610115610110366004611211565b61072e565b60405190815260200160405180910390f35b6100a0610135366004611211565b6107cb565b34801561014657600080fd5b506100a06101553660046111ab565b610826565b3360009081526003602090815260408083206001600160a01b038616845290915290205481111561018a57600080fd5b6000546001600160a01b039081169083160361029a57600054604051636eb1769f60e11b815233600482015230602482015282916001600160a01b03169063dd62ed3e90604401602060405180830381865afa1580156101ee573d6000803e3d6000fd5b505050506040513d601f19601f82011682018060405250810190610212919061122c565b101561021d57600080fd5b6000546040516323b872dd60e01b8152336004820152306024820152604481018390526001600160a01b03909116906323b872dd906064016020604051808303816000875af1158015610274573d6000803e3d6000fd5b505050506040513d601f19601f820116820180604052508101906102989190611245565b505b3360009081526003602090815260408083206001600160a01b0386168452909152812080548392906102cd90849061127d565b909155506102db9050610b8e565b336000908152600560205260409020555050565b6102f98282610bbd565b61030257600080fd5b505050565b336000908152600460205260408120549003610381576009805460010181556000818152600a805433939290919061033e83611290565b9190505581548110610352576103526112a9565b9060005260206000200160006101000a8154816001600160a01b0302191690836001600160a01b031602179055505b6000546001600160a01b03908116908316036104ec57600054604051636eb1769f60e11b81523360048201523060248201526001600160a01b039091169063dd62ed3e90604401602060405180830381865afa1580156103e5573d6000803e3d6000fd5b505050506040513d601f19601f82011682018060405250810190610409919061122c565b81111561041557600080fd5b3360009081526002602090815260408083206001600160a01b0386168452909152812080548392906104489084906112bf565b909155505060008054338083526002602090815260408085206001600160a01b0388811687529252938490205493516323b872dd60e01b8152600481019290925230602483015260448201939093529116906323b872dd906064016020604051808303816000875af11580156104c2573d6000803e3d6000fd5b505050506040513d601f19601f820116820180604052508101906104e69190611245565b50610532565b803410156104f957600080fd5b3360009081526002602090815260408083206001600160a01b03861684529091528120805483929061052c9084906112bf565b90915550505b33600090815260066020526040812054900361055b573360009081526006602052604090204390555b610563610b8e565b336000908152600460205260409020555050565b3360009081526008602052604090205460ff166105b65733600090815260076020908152604080832043905560089091529020805460ff191660011790555b6000546001600160a01b03908116908316036106c8576106076105d7610cbf565b6105e190836112bf565b6064600d546105ee610b8e565b6105f891906112d2565b61060291906112ff565b610cf2565b6064600d54610614610b8e565b61061e91906112d2565b61062891906112ff565b610638610633610cbf565b610d3c565b61064290836112bf565b111561064d57600080fd5b60005460405163a9059cbb60e01b8152336004820152602481018390526001600160a01b039091169063a9059cbb906044016020604051808303816000875af115801561069e573d6000803e3d6000fd5b505050506040513d601f19601f820116820180604052508101906106c29190611245565b506106ed565b6106d0610cbf565b6106da90826112bf565b6106e2610b8e565b10156106ed57600080fd5b3360009081526003602090815260408083206001600160a01b0386168452909152812080548392906107209084906112bf565b909155506102db9050610cbf565b6000610738610dfc565b600b54156107a057600c541561079757600b54600c5461075781610d3c565b610761919061127d565b61076a84610fb3565b61077491906112d2565b61077e91906112ff565b61078783610fb3565b61079191906112bf565b92915050565b61079182610fb3565b503360009081526002602090815260408083206001600160a01b03851684529091529020545b919050565b6001600160a01b0381166107de57600080fd5b600034116107eb57600080fd5b3360009081526002602090815260408083206001600160a01b03851684529091528120805434929061081e9084906112bf565b909155505050565b6108308282610bbd565b61083957600080fd5b60006108448361072e565b905061084e610cbf565b33600090815260056020526040902055801580159061087b57503360009081526005602052604090205415155b15610a17576001546040516341976e0960e01b81526001600160a01b038581166004830152670de0b6b3a76400009216906341976e0990602401602060405180830381865afa1580156108d2573d6000803e3d6000fd5b505050506040513d601f19601f820116820180604052508101906108f6919061122c565b61090090846112d2565b61090a91906112ff565b610912610b8e565b1161091c57600080fd5b600e546001546040516341976e0960e01b81526001600160a01b038681166004830152670de0b6b3a76400009216906341976e0990602401602060405180830381865afa158015610971573d6000803e3d6000fd5b505050506040513d601f19601f82011682018060405250810190610995919061122c565b61099f90856112d2565b6109a991906112ff565b6109b1610b8e565b6109bb919061127d565b6109c484610d3c565b6109cf9060646112d2565b6109d991906112ff565b10610a125760405162461bcd60e51b815260206004820152600560248201526432b93937b960d91b604482015260640160405180910390fd5b610a24565b81811015610a2457600080fd5b6000546001600160a01b0390811690841603610ab55760005460405163a9059cbb60e01b8152336004820152602481018490526001600160a01b039091169063a9059cbb906044016020604051808303816000875af1158015610a8b573d6000803e3d6000fd5b505050506040513d601f19601f82011682018060405250810190610aaf9190611245565b50610afe565b60405133908390600081818185875af1925050503d8060008114610af5576040519150601f19603f3d011682016040523d82523d6000602084013e610afa565b606091505b5050505b610b06610b8e565b50336000908152600460205260409020548211610b60573360009081526004602052604081208054849290610b3c90849061127d565b9250508190555081600b6000828254610b55919061127d565b909155506103029050565b336000908152600460205260408120819055600b8054849290610b8490849061127d565b9091555050505050565b60008054610ba4906001600160a01b0316610fb3565b610bae6000610fb3565b610bb891906112bf565b905090565b600081610bc98461072e565b1015610bd457600080fd5b600e546001546040516341976e0960e01b81526001600160a01b0386811660048301526000936064939092670de0b6b3a764000092909116906341976e0990602401602060405180830381865afa158015610c33573d6000803e3d6000fd5b505050506040513d601f19601f82011682018060405250810190610c57919061122c565b610c6190876112d2565b610c6b91906112ff565b610c748761072e565b610c7e919061127d565b610c8891906112d2565b610c9291906112ff565b336000908152600560205260409020549091508110610cb5576001915050610791565b5060009392505050565b600080543382526003602090815260408084206001600160a01b0390931684529190528082205482805290822054610bae565b6040516024810183905260448101829052610d389060640160408051601f198184030181529190526020810180516001600160e01b031662d81ed360e71b179052611063565b5050565b336000908152600760205260408120548190610d58904361127d565b90508291506101f48110610dc357610d726101f482611313565b610d7c908261127d565b90505b8015610dbe57610d926236ee808261127d565b9050662386f26fc10000610dad83663a8f496c73c6c96112d2565b610db791906112ff565b9150610d7f565b610df6565b610dd1816305f5e10061140b565b610ddf826305f5e10d61140b565b610de990846112d2565b610df391906112ff565b91505b50919050565b6000600b819055600c8190555b600a54811015610fb057610e4360098281548110610e2957610e296112a9565b6000918252602090912001546001600160a01b0316611084565b6004600060098481548110610e5a57610e5a6112a9565b60009182526020808320909101546001600160a01b0316835282019290925260400190205560098054610eb2919083908110610e9857610e986112a9565b6000918252602090912001546001600160a01b03166110a7565b6005600060098481548110610ec957610ec96112a9565b60009182526020808320909101546001600160a01b0316835282019290925260400181209190915560098054600492919084908110610f0a57610f0a6112a9565b60009182526020808320909101546001600160a01b03168352820192909252604001812054600b805491929091610f429084906112bf565b925050819055506005600060098381548110610f6057610f606112a9565b60009182526020808320909101546001600160a01b03168352820192909252604001812054600c805491929091610f989084906112bf565b90915550819050610fa881611290565b915050610e09565b50565b6001546040516341976e0960e01b81526001600160a01b03838116600483015260009216906341976e0990602401602060405180830381865afa158015610ffe573d6000803e3d6000fd5b505050506040513d601f19601f82011682018060405250810190611022919061122c565b3360009081526002602090815260408083206001600160a01b038716845290915290205461105990670de0b6b3a7640000906112ff565b61079191906112d2565b80516a636f6e736f6c652e6c6f67602083016000808483855afa5050505050565b6000805461109c9083906001600160a01b03166110db565b6107878360006110db565b600080546001600160a01b038381168352600360209081526040808520929093168452528082205482805290822054610787565b6001546040516341976e0960e01b81526001600160a01b03838116600483015260009216906341976e0990602401602060405180830381865afa158015611126573d6000803e3d6000fd5b505050506040513d601f19601f8201168201806040525081019061114a919061122c565b6001600160a01b0380851660009081526002602090815260408083209387168352929052205461118390670de0b6b3a7640000906112ff565b61118d91906112d2565b9392505050565b80356001600160a01b03811681146107c657600080fd5b600080604083850312156111be57600080fd5b6111c783611194565b946020939093013593505050565b6000806000606084860312156111ea57600080fd5b6111f384611194565b925061120160208501611194565b9150604084013590509250925092565b60006020828403121561122357600080fd5b61118d82611194565b60006020828403121561123e57600080fd5b5051919050565b60006020828403121561125757600080fd5b8151801515811461118d57600080fd5b634e487b7160e01b600052601160045260246000fd5b8181038181111561079157610791611267565b6000600182016112a2576112a2611267565b5060010190565b634e487b7160e01b600052603260045260246000fd5b8082018082111561079157610791611267565b808202811582820484141761079157610791611267565b634e487b7160e01b600052601260045260246000fd5b60008261130e5761130e6112e9565b500490565b600082611322576113226112e9565b500690565b600181815b8085111561136257816000190482111561134857611348611267565b8085161561135557918102915b93841c939080029061132c565b509250929050565b60008261137957506001610791565b8161138657506000610791565b816001811461139c57600281146113a6576113c2565b6001915050610791565b60ff8411156113b7576113b7611267565b50506001821b610791565b5060208310610133831016604e8410600b84101617156113e5575081810a610791565b6113ef8383611327565b806000190482111561140357611403611267565b029392505050565b600061118d838361136a56fea2646970667358221220bc7859a10e27ac329ff79598eefd95b025c25f96dc43515135e2560c28481b9f64736f6c63430008130033",
    "linkReferences": {}
  },
  "methodIdentifiers": {
    "borrow(address,uint256)": "4b8a3529",
    "deposit(address,uint256)": "47e7ef24",
    "getAccruedSupplyAmount(address)": "53415e44",
    "initializeLendingProtocol(address)": "8f1e9779",
    "liquidate(address,address,uint256)": "26c01303",
    "repay(address,uint256)": "22867d78",
    "withdraw(address,uint256)": "f3fef3a3"
  },
  "id": 21
}