{
  "abi": [
    {
      "inputs": [
        {
          "internalType": "address",
          "name": "_tokenX",
          "type": "address"
        },
        {
          "internalType": "address",
          "name": "_tokenY",
          "type": "address"
        }
      ],
      "stateMutability": "nonpayable",
      "type": "constructor"
    },
    {
      "inputs": [
        {
          "internalType": "address",
          "name": "",
          "type": "address"
        }
      ],
      "name": "LPToken_balances",
      "outputs": [
        {
          "internalType": "uint256",
          "name": "",
          "type": "uint256"
        }
      ],
      "stateMutability": "view",
      "type": "function"
    },
    {
      "inputs": [
        {
          "internalType": "uint256",
          "name": "tokenXAmount",
          "type": "uint256"
        },
        {
          "internalType": "uint256",
          "name": "tokenYAmount",
          "type": "uint256"
        },
        {
          "internalType": "uint256",
          "name": "minimumLPTokenAmount",
          "type": "uint256"
        }
      ],
      "name": "addLiquidity",
      "outputs": [
        {
          "internalType": "uint256",
          "name": "LPTokenAmount",
          "type": "uint256"
        }
      ],
      "stateMutability": "nonpayable",
      "type": "function"
    },
    {
      "inputs": [
        {
          "internalType": "address",
          "name": "",
          "type": "address"
        }
      ],
      "name": "balances",
      "outputs": [
        {
          "internalType": "uint256",
          "name": "",
          "type": "uint256"
        }
      ],
      "stateMutability": "view",
      "type": "function"
    },
    {
      "inputs": [
        {
          "internalType": "uint256",
          "name": "LPTokenAmount",
          "type": "uint256"
        },
        {
          "internalType": "uint256",
          "name": "minimumTokenXAmount",
          "type": "uint256"
        },
        {
          "internalType": "uint256",
          "name": "minimumTokenYAmount",
          "type": "uint256"
        }
      ],
      "name": "removeLiquidity",
      "outputs": [
        {
          "internalType": "uint256",
          "name": "",
          "type": "uint256"
        },
        {
          "internalType": "uint256",
          "name": "",
          "type": "uint256"
        }
      ],
      "stateMutability": "nonpayable",
      "type": "function"
    },
    {
      "inputs": [
        {
          "internalType": "uint256",
          "name": "tokenXAmount",
          "type": "uint256"
        },
        {
          "internalType": "uint256",
          "name": "tokenYAmount",
          "type": "uint256"
        },
        {
          "internalType": "uint256",
          "name": "tokenMinimumOutputAmount",
          "type": "uint256"
        }
      ],
      "name": "swap",
      "outputs": [
        {
          "internalType": "uint256",
          "name": "outputAmount",
          "type": "uint256"
        }
      ],
      "stateMutability": "nonpayable",
      "type": "function"
    },
    {
      "inputs": [],
      "name": "totalLiquidity",
      "outputs": [
        {
          "internalType": "uint256",
          "name": "",
          "type": "uint256"
        }
      ],
      "stateMutability": "view",
      "type": "function"
    },
    {
      "inputs": [
        {
          "internalType": "address",
          "name": "to",
          "type": "address"
        },
        {
          "internalType": "uint256",
          "name": "lpAmount",
          "type": "uint256"
        }
      ],
      "name": "transfer",
      "outputs": [
        {
          "internalType": "bool",
          "name": "",
          "type": "bool"
        }
      ],
      "stateMutability": "nonpayable",
      "type": "function"
    }
  ],
  "bytecode": {
    "object": "0x608060405234801561001057600080fd5b50604051610ea5380380610ea583398101604081905261002f9161007c565b600080546001600160a01b039384166001600160a01b031991821617909155600180549290931691161790556100af565b80516001600160a01b038116811461007757600080fd5b919050565b6000806040838503121561008f57600080fd5b61009883610060565b91506100a660208401610060565b90509250929050565b610de7806100be6000396000f3fe608060405234801561001057600080fd5b506004361061007d5760003560e01c8063422f10431161005b578063422f1043146100de578063857620e1146100f15780639d9892cd14610119578063a9059cbb1461012c57600080fd5b806315770f921461008257806327e235e31461009e57806340aa5935146100be575b600080fd5b61008b60025481565b6040519081526020015b60405180910390f35b61008b6100ac366004610c56565b60046020526000908152604090205481565b61008b6100cc366004610c56565b60036020526000908152604090205481565b61008b6100ec366004610c71565b610152565b6101046100ff366004610c71565b61040f565b60408051928352602083019190915201610095565b61008b610127366004610c71565b6106cc565b61014261013a366004610c9d565b600092915050565b6040519015158152602001610095565b600080841180156101635750600083115b6101c75760405162461bcd60e51b815260206004820152602a60248201527f706c6561736520636865636b20746f6b656e58416d6f756e7420616e6420746f6044820152691ad95b96505b5bdd5b9d60b21b60648201526084015b60405180910390fd5b600080546001600160a01b0390811682526004602052604080832054600154909216835282205460025491929091819081036102285761020f61020a888a610cdd565b610aa0565b94508585101561021e57600080fd5b6002859055610294565b83886002546102379190610cdd565b6102419190610d0a565b915082876002546102529190610cdd565b61025c9190610d0a565b905080821061026b578061026d565b815b94508585101561027c57600080fd5b846002600082825461028e9190610d2c565b90915550505b6000546040516323b872dd60e01b81526001600160a01b03909116906323b872dd906102c890339030908d90600401610d3f565b6020604051808303816000875af11580156102e7573d6000803e3d6000fd5b505050506040513d601f19601f8201168201806040525081019061030b9190610d63565b506001546040516323b872dd60e01b81526001600160a01b03909116906323b872dd9061034090339030908c90600401610d3f565b6020604051808303816000875af115801561035f573d6000803e3d6000fd5b505050506040513d601f19601f820116820180604052508101906103839190610d63565b50600080546001600160a01b0316815260046020526040812080548a92906103ac908490610d2c565b90915550506001546001600160a01b0316600090815260046020526040812080548992906103db908490610d2c565b909155505033600090815260036020526040812080548792906103ff908490610d2c565b9091555050505050509392505050565b3360009081526003602052604081205481908511156104705760405162461bcd60e51b815260206004820152601d60248201527f496e73756666696369656e74204c5020746f6b656e2062616c616e636500000060448201526064016101be565b600085116104c05760405162461bcd60e51b815260206004820152601760248201527f496e76616c6964204c5020746f6b656e20616d6f756e7400000000000000000060448201526064016101be565b600254600080546040516370a0823160e01b81523060048201529192916001600160a01b03909116906370a0823190602401602060405180830381865afa15801561050f573d6000803e3d6000fd5b505050506040513d601f19601f820116820180604052508101906105339190610d85565b61053d9088610cdd565b6105479190610d0a565b6002546001546040516370a0823160e01b81523060048201529293506000926001600160a01b03909116906370a0823190602401602060405180830381865afa158015610598573d6000803e3d6000fd5b505050506040513d601f19601f820116820180604052508101906105bc9190610d85565b6105c69089610cdd565b6105d09190610d0a565b90508582101580156105e25750848110155b6106275760405162461bcd60e51b8152602060048201526016602482015275496e73756666696369656e74206c697175696469747960501b60448201526064016101be565b600080546001600160a01b03168152600460205260408120805484929061064f908490610d9e565b90915550506001546001600160a01b03166000908152600460205260408120805483929061067e908490610d9e565b909155505033600090815260036020526040812080548992906106a2908490610d9e565b9250508190555086600260008282546106bb9190610d9e565b909155509197909650945050505050565b60008315806106d9575082155b6106e257600080fd5b600080546040516370a0823160e01b81523060048201526001600160a01b03909116906370a0823190602401602060405180830381865afa15801561072b573d6000803e3d6000fd5b505050506040513d601f19601f8201168201806040525081019061074f9190610d85565b6001546040516370a0823160e01b81523060048201529192506000916001600160a01b03909116906370a0823190602401602060405180830381865afa15801561079d573d6000803e3d6000fd5b505050506040513d601f19601f820116820180604052508101906107c19190610d85565b90508515610932576103e86107d8876103e7610cdd565b6107e29190610d0a565b6107ec9083610d2c565b6103e86107fb886103e7610cdd565b6108059190610d0a565b61080f9083610cdd565b6108199190610d0a565b92508383101561082857600080fd5b6108328382610d9e565b905061083e8683610d2c565b6000546040516323b872dd60e01b81529193506001600160a01b0316906323b872dd9061087390339030908b90600401610d3f565b6020604051808303816000875af1158015610892573d6000803e3d6000fd5b505050506040513d601f19601f820116820180604052508101906108b69190610d63565b5060015460405163a9059cbb60e01b8152336004820152602481018590526001600160a01b039091169063a9059cbb906044016020604051808303816000875af1158015610908573d6000803e3d6000fd5b505050506040513d601f19601f8201168201806040525081019061092c9190610d63565b50610a97565b6103e8610941866103e7610cdd565b61094b9190610d0a565b6109559082610d2c565b6103e8610964876103e7610cdd565b61096e9190610d0a565b6109789084610cdd565b6109829190610d0a565b92508383101561099157600080fd5b61099b8383610d9e565b91506109a78582610d2c565b6001546040516323b872dd60e01b81529192506001600160a01b0316906323b872dd906109dc90339030908a90600401610d3f565b6020604051808303816000875af11580156109fb573d6000803e3d6000fd5b505050506040513d601f19601f82011682018060405250810190610a1f9190610d63565b5060005460405163a9059cbb60e01b8152336004820152602481018590526001600160a01b039091169063a9059cbb906044016020604051808303816000875af1158015610a71573d6000803e3d6000fd5b505050506040513d601f19601f82011682018060405250810190610a959190610d63565b505b50509392505050565b600081600003610ab257506000919050565b60006001610abf84610b8f565b901c6001901b90506001818481610ad857610ad8610cf4565b048201901c90506001818481610af057610af0610cf4565b048201901c90506001818481610b0857610b08610cf4565b048201901c90506001818481610b2057610b20610cf4565b048201901c90506001818481610b3857610b38610cf4565b048201901c90506001818481610b5057610b50610cf4565b048201901c90506001818481610b6857610b68610cf4565b048201901c9050610b8881828581610b8257610b82610cf4565b04610c24565b9392505050565b600080608083901c15610ba457608092831c92015b604083901c15610bb657604092831c92015b602083901c15610bc857602092831c92015b601083901c15610bda57601092831c92015b600883901c15610bec57600892831c92015b600483901c15610bfe57600492831c92015b600283901c15610c1057600292831c92015b600183901c15610c1e576001015b92915050565b6000818310610c335781610b88565b5090919050565b80356001600160a01b0381168114610c5157600080fd5b919050565b600060208284031215610c6857600080fd5b610b8882610c3a565b600080600060608486031215610c8657600080fd5b505081359360208301359350604090920135919050565b60008060408385031215610cb057600080fd5b610cb983610c3a565b946020939093013593505050565b634e487b7160e01b600052601160045260246000fd5b8082028115828204841417610c1e57610c1e610cc7565b634e487b7160e01b600052601260045260246000fd5b600082610d2757634e487b7160e01b600052601260045260246000fd5b500490565b80820180821115610c1e57610c1e610cc7565b6001600160a01b039384168152919092166020820152604081019190915260600190565b600060208284031215610d7557600080fd5b81518015158114610b8857600080fd5b600060208284031215610d9757600080fd5b5051919050565b81810381811115610c1e57610c1e610cc756fea26469706673582212206287c6375d1a086c69738ebb09a1972a0f184ae48b95319621c0e603d0db9f3964736f6c63430008130033",
    "linkReferences": {}
  },
  "methodIdentifiers": {
    "LPToken_balances(address)": "40aa5935",
    "addLiquidity(uint256,uint256,uint256)": "422f1043",
    "balances(address)": "27e235e3",
    "removeLiquidity(uint256,uint256,uint256)": "857620e1",
    "swap(uint256,uint256,uint256)": "9d9892cd",
    "totalLiquidity()": "15770f92",
    "transfer(address,uint256)": "a9059cbb"
  },
  "id": 25
}