{
  "abi": [
    {
      "inputs": [
        {
          "internalType": "address",
          "name": "addrX",
          "type": "address"
        },
        {
          "internalType": "address",
          "name": "addrY",
          "type": "address"
        }
      ],
      "stateMutability": "nonpayable",
      "type": "constructor"
    },
    {
      "anonymous": false,
      "inputs": [
        {
          "indexed": true,
          "internalType": "address",
          "name": "owner",
          "type": "address"
        },
        {
          "indexed": true,
          "internalType": "address",
          "name": "spender",
          "type": "address"
        },
        {
          "indexed": false,
          "internalType": "uint256",
          "name": "value",
          "type": "uint256"
        }
      ],
      "name": "Approval",
      "type": "event"
    },
    {
      "anonymous": false,
      "inputs": [
        {
          "indexed": true,
          "internalType": "address",
          "name": "from",
          "type": "address"
        },
        {
          "indexed": true,
          "internalType": "address",
          "name": "to",
          "type": "address"
        },
        {
          "indexed": false,
          "internalType": "uint256",
          "name": "value",
          "type": "uint256"
        }
      ],
      "name": "Transfer",
      "type": "event"
    },
    {
      "inputs": [],
      "name": "LPToken",
      "outputs": [
        {
          "internalType": "contract ERC20",
          "name": "",
          "type": "address"
        }
      ],
      "stateMutability": "view",
      "type": "function"
    },
    {
      "inputs": [
        {
          "internalType": "uint256",
          "name": "x",
          "type": "uint256"
        }
      ],
      "name": "_sqrt",
      "outputs": [
        {
          "internalType": "uint256",
          "name": "y",
          "type": "uint256"
        }
      ],
      "stateMutability": "pure",
      "type": "function"
    },
    {
      "inputs": [
        {
          "internalType": "uint256",
          "name": "tokenXAmount",
          "type": "uint256"
        },
        {
          "internalType": "uint256",
          "name": "tokenYAmount",
          "type": "uint256"
        },
        {
          "internalType": "uint256",
          "name": "minimumLPTokenAmount",
          "type": "uint256"
        }
      ],
      "name": "addLiquidity",
      "outputs": [
        {
          "internalType": "uint256",
          "name": "LPTokenAmount",
          "type": "uint256"
        }
      ],
      "stateMutability": "nonpayable",
      "type": "function"
    },
    {
      "inputs": [
        {
          "internalType": "address",
          "name": "owner",
          "type": "address"
        },
        {
          "internalType": "address",
          "name": "spender",
          "type": "address"
        }
      ],
      "name": "allowance",
      "outputs": [
        {
          "internalType": "uint256",
          "name": "",
          "type": "uint256"
        }
      ],
      "stateMutability": "view",
      "type": "function"
    },
    {
      "inputs": [
        {
          "internalType": "address",
          "name": "spender",
          "type": "address"
        },
        {
          "internalType": "uint256",
          "name": "amount",
          "type": "uint256"
        }
      ],
      "name": "approve",
      "outputs": [
        {
          "internalType": "bool",
          "name": "",
          "type": "bool"
        }
      ],
      "stateMutability": "nonpayable",
      "type": "function"
    },
    {
      "inputs": [
        {
          "internalType": "address",
          "name": "account",
          "type": "address"
        }
      ],
      "name": "balanceOf",
      "outputs": [
        {
          "internalType": "uint256",
          "name": "",
          "type": "uint256"
        }
      ],
      "stateMutability": "view",
      "type": "function"
    },
    {
      "inputs": [],
      "name": "decimals",
      "outputs": [
        {
          "internalType": "uint8",
          "name": "",
          "type": "uint8"
        }
      ],
      "stateMutability": "view",
      "type": "function"
    },
    {
      "inputs": [
        {
          "internalType": "address",
          "name": "spender",
          "type": "address"
        },
        {
          "internalType": "uint256",
          "name": "subtractedValue",
          "type": "uint256"
        }
      ],
      "name": "decreaseAllowance",
      "outputs": [
        {
          "internalType": "bool",
          "name": "",
          "type": "bool"
        }
      ],
      "stateMutability": "nonpayable",
      "type": "function"
    },
    {
      "inputs": [
        {
          "internalType": "address",
          "name": "spender",
          "type": "address"
        },
        {
          "internalType": "uint256",
          "name": "addedValue",
          "type": "uint256"
        }
      ],
      "name": "increaseAllowance",
      "outputs": [
        {
          "internalType": "bool",
          "name": "",
          "type": "bool"
        }
      ],
      "stateMutability": "nonpayable",
      "type": "function"
    },
    {
      "inputs": [],
      "name": "name",
      "outputs": [
        {
          "internalType": "string",
          "name": "",
          "type": "string"
        }
      ],
      "stateMutability": "view",
      "type": "function"
    },
    {
      "inputs": [
        {
          "internalType": "uint256",
          "name": "LPTokenAmount",
          "type": "uint256"
        },
        {
          "internalType": "uint256",
          "name": "minimumTokenXAmount",
          "type": "uint256"
        },
        {
          "internalType": "uint256",
          "name": "minimumTokenYAmount",
          "type": "uint256"
        }
      ],
      "name": "removeLiquidity",
      "outputs": [
        {
          "internalType": "uint256",
          "name": "tokenXAmount_",
          "type": "uint256"
        },
        {
          "internalType": "uint256",
          "name": "tokenYAmount_",
          "type": "uint256"
        }
      ],
      "stateMutability": "nonpayable",
      "type": "function"
    },
    {
      "inputs": [
        {
          "internalType": "uint256",
          "name": "tokenXAmount",
          "type": "uint256"
        },
        {
          "internalType": "uint256",
          "name": "tokenYAmount",
          "type": "uint256"
        },
        {
          "internalType": "uint256",
          "name": "tokenMinimumOutputAmount",
          "type": "uint256"
        }
      ],
      "name": "swap",
      "outputs": [
        {
          "internalType": "uint256",
          "name": "outAmount",
          "type": "uint256"
        }
      ],
      "stateMutability": "nonpayable",
      "type": "function"
    },
    {
      "inputs": [],
      "name": "symbol",
      "outputs": [
        {
          "internalType": "string",
          "name": "",
          "type": "string"
        }
      ],
      "stateMutability": "view",
      "type": "function"
    },
    {
      "inputs": [],
      "name": "tokenX",
      "outputs": [
        {
          "internalType": "contract ERC20",
          "name": "",
          "type": "address"
        }
      ],
      "stateMutability": "view",
      "type": "function"
    },
    {
      "inputs": [],
      "name": "tokenY",
      "outputs": [
        {
          "internalType": "contract ERC20",
          "name": "",
          "type": "address"
        }
      ],
      "stateMutability": "view",
      "type": "function"
    },
    {
      "inputs": [],
      "name": "totalSupply",
      "outputs": [
        {
          "internalType": "uint256",
          "name": "",
          "type": "uint256"
        }
      ],
      "stateMutability": "view",
      "type": "function"
    },
    {
      "inputs": [],
      "name": "totalSupply_",
      "outputs": [
        {
          "internalType": "uint256",
          "name": "",
          "type": "uint256"
        }
      ],
      "stateMutability": "view",
      "type": "function"
    },
    {
      "inputs": [
        {
          "internalType": "address",
          "name": "to",
          "type": "address"
        },
        {
          "internalType": "uint256",
          "name": "amount",
          "type": "uint256"
        }
      ],
      "name": "transfer",
      "outputs": [
        {
          "internalType": "bool",
          "name": "",
          "type": "bool"
        }
      ],
      "stateMutability": "nonpayable",
      "type": "function"
    },
    {
      "inputs": [
        {
          "internalType": "address",
          "name": "from",
          "type": "address"
        },
        {
          "internalType": "address",
          "name": "to",
          "type": "address"
        },
        {
          "internalType": "uint256",
          "name": "amount",
          "type": "uint256"
        }
      ],
      "name": "transferFrom",
      "outputs": [
        {
          "internalType": "bool",
          "name": "",
          "type": "bool"
        }
      ],
      "stateMutability": "nonpayable",
      "type": "function"
    }
  ],
  "bytecode": {
    "object": "0x60806040526002546008553480156200001757600080fd5b5060405162001c5c38038062001c5c8339810160408190526200003a91620000f8565b6040518060400160405280600781526020016626283a37b5b2b760c91b8152506040518060400160405280600381526020016213141560ea1b8152508160039081620000879190620001d5565b506004620000968282620001d5565b5050600580546001600160a01b039485166001600160a01b031991821617909155600680549390941692811692909217909255600780549091163017905550620002a1565b80516001600160a01b0381168114620000f357600080fd5b919050565b600080604083850312156200010c57600080fd5b6200011783620000db565b91506200012760208401620000db565b90509250929050565b634e487b7160e01b600052604160045260246000fd5b600181811c908216806200015b57607f821691505b6020821081036200017c57634e487b7160e01b600052602260045260246000fd5b50919050565b601f821115620001d057600081815260208120601f850160051c81016020861015620001ab5750805b601f850160051c820191505b81811015620001cc57828155600101620001b7565b5050505b505050565b81516001600160401b03811115620001f157620001f162000130565b620002098162000202845462000146565b8462000182565b602080601f831160018114620002415760008415620002285750858301515b600019600386901b1c1916600185901b178555620001cc565b600085815260208120601f198616915b82811015620002725788860151825594840194600190910190840162000251565b5085821015620002915787850151600019600388901b60f8161c191681555b5050505050600190811b01905550565b6119ab80620002b16000396000f3fe608060405234801561001057600080fd5b50600436106101215760003560e01c8063422f1043116100ad5780639d9892cd116100715780639d9892cd14610270578063a457c2d714610283578063a9059cbb14610296578063b7d19fc4146102a9578063dd62ed3e146102bc57600080fd5b8063422f1043146101f15780636a263f021461020457806370a0823114610217578063857620e11461024057806395d89b411461026857600080fd5b806318160ddd116100f457806318160ddd146101a157806323b872dd146101b3578063313ce567146101c6578063324536eb146101d557806339509351146101de57600080fd5b8063011cee361461012657806306fdde0314610156578063095ea7b31461016b57806316dc165b1461018e575b600080fd5b600754610139906001600160a01b031681565b6040516001600160a01b0390911681526020015b60405180910390f35b61015e6102cf565b60405161014d91906116d3565b61017e61017936600461173d565b610361565b604051901515815260200161014d565b600554610139906001600160a01b031681565b6002545b60405190815260200161014d565b61017e6101c1366004611767565b61037b565b6040516012815260200161014d565b6101a560085481565b61017e6101ec36600461173d565b61039f565b6101a56101ff3660046117a3565b6103c1565b6101a56102123660046117cf565b61084e565b6101a56102253660046117e8565b6001600160a01b031660009081526020819052604090205490565b61025361024e3660046117a3565b6108a7565b6040805192835260208301919091520161014d565b61015e610bd5565b6101a561027e3660046117a3565b610be4565b61017e61029136600461173d565b611028565b61017e6102a436600461173d565b6110a3565b600654610139906001600160a01b031681565b6101a56102ca366004611803565b6110b1565b6060600380546102de90611836565b80601f016020809104026020016040519081016040528092919081815260200182805461030a90611836565b80156103575780601f1061032c57610100808354040283529160200191610357565b820191906000526020600020905b81548152906001019060200180831161033a57829003601f168201915b5050505050905090565b60003361036f8185856110dc565b60019150505b92915050565b600033610389858285611201565b61039485858561124b565b506001949350505050565b60003361036f8185856103b283836110b1565b6103bc9190611880565b6110dc565b600080841161040c5760405162461bcd60e51b81526020600482015260126024820152714c65737320546f6b656e4120537570706c7960701b60448201526064015b60405180910390fd5b600083116104515760405162461bcd60e51b81526020600482015260126024820152714c65737320546f6b656e4220537570706c7960701b6044820152606401610403565b600554604051636eb1769f60e11b815233600482015230602482015285916001600160a01b03169063dd62ed3e90604401602060405180830381865afa15801561049f573d6000803e3d6000fd5b505050506040513d601f19601f820116820180604052508101906104c39190611893565b10156104e15760405162461bcd60e51b8152600401610403906118ac565b600654604051636eb1769f60e11b815233600482015230602482015284916001600160a01b03169063dd62ed3e90604401602060405180830381865afa15801561052f573d6000803e3d6000fd5b505050506040513d601f19601f820116820180604052508101906105539190611893565b10156105715760405162461bcd60e51b8152600401610403906118ac565b6005546040516370a0823160e01b815230600482015260009182916001600160a01b03909116906370a0823190602401602060405180830381865afa1580156105be573d6000803e3d6000fd5b505050506040513d601f19601f820116820180604052508101906105e29190611893565b6009556006546040516370a0823160e01b81523060048201526001600160a01b03909116906370a0823190602401602060405180830381865afa15801561062d573d6000803e3d6000fd5b505050506040513d601f19601f820116820180604052508101906106519190611893565b600a556008546000036106725761066b61021286886118e3565b92506106ba565b600954610681876008546113ef565b61068b91906118fa565b9150600a5461069c866008546113ef565b6106a691906118fa565b90508082106106b557806106b7565b815b92505b838310156107015760405162461bcd60e51b81526020600482015260146024820152734c657373204c5020546f6b656e20537570706c7960601b6044820152606401610403565b61070b3384611478565b50826008600082825461071e9190611880565b9250508190555085600960008282546107379190611880565b9250508190555084600a60008282546107509190611880565b90915550506005546040516323b872dd60e01b81526001600160a01b03909116906323b872dd9061078990339030908b9060040161191c565b6020604051808303816000875af11580156107a8573d6000803e3d6000fd5b505050506040513d601f19601f820116820180604052508101906107cc9190611940565b506006546040516323b872dd60e01b81526001600160a01b03909116906323b872dd9061080190339030908a9060040161191c565b6020604051808303816000875af1158015610820573d6000803e3d6000fd5b505050506040513d601f19601f820116820180604052508101906108449190611940565b5050509392505050565b600080600261085e846001611880565b61086891906118fa565b90508291505b818110156108a15790508060028161088681866118fa565b6108909190611880565b61089a91906118fa565b905061086e565b50919050565b600080600085116108f15760405162461bcd60e51b81526020600482015260146024820152734c657373204c5020546f6b656e20537570706c7960601b6044820152606401610403565b6005546040516370a0823160e01b81523060048201526001600160a01b03909116906370a0823190602401602060405180830381865afa158015610939573d6000803e3d6000fd5b505050506040513d601f19601f8201168201806040525081019061095d9190611893565b6009556006546040516370a0823160e01b81523060048201526001600160a01b03909116906370a0823190602401602060405180830381865afa1580156109a8573d6000803e3d6000fd5b505050506040513d601f19601f820116820180604052508101906109cc9190611893565b600a556008546009546109df90876113ef565b6109e991906118fa565b91506008546109fa600a54876113ef565b610a0491906118fa565b905083821015610a565760405162461bcd60e51b815260206004820152601b60248201527f546f6b656e5820616d6f756e742062656c6f77206d696e696d756d00000000006044820152606401610403565b82811015610aa65760405162461bcd60e51b815260206004820152601b60248201527f546f6b656e5920616d6f756e742062656c6f77206d696e696d756d00000000006044820152606401610403565b8160096000828254610ab89190611962565b9250508190555080600a6000828254610ad19190611962565b90915550610ae19050338661148d565b60055460405163a9059cbb60e01b8152336004820152602481018490526001600160a01b039091169063a9059cbb906044016020604051808303816000875af1158015610b32573d6000803e3d6000fd5b505050506040513d601f19601f82011682018060405250810190610b569190611940565b5060065460405163a9059cbb60e01b8152336004820152602481018390526001600160a01b039091169063a9059cbb906044016020604051808303816000875af1158015610ba8573d6000803e3d6000fd5b505050506040513d601f19601f82011682018060405250810190610bcc9190611940565b50935093915050565b6060600480546102de90611836565b600080841180610bf45750600083115b610c2b5760405162461bcd60e51b81526020600482015260086024820152673737903d32b9379760c11b6044820152606401610403565b831580610c36575082155b610c6d5760405162461bcd60e51b81526020600482015260086024820152676f6e6c79206f6e6560c01b6044820152606401610403565b6005546040516370a0823160e01b81523060048201526001600160a01b03909116906370a0823190602401602060405180830381865afa158015610cb5573d6000803e3d6000fd5b505050506040513d601f19601f82011682018060405250810190610cd99190611893565b6009556006546040516370a0823160e01b81523060048201526001600160a01b03909116906370a0823190602401602060405180830381865afa158015610d24573d6000803e3d6000fd5b505050506040513d601f19601f82011682018060405250810190610d489190611893565b600a556000838103610ec157610d9c600954610d73600954610d6e6103e86103e76115b7565b6113ef565b610d7d9190611880565b610d97600a54610d6e600954610d6e6103e86103e76115b7565b6115b7565b905080600a6000828254610db09190611962565b925050819055508460096000828254610dc99190611880565b90915550506005546040516323b872dd60e01b81526001600160a01b03909116906323b872dd90610e029033903090899060040161191c565b6020604051808303816000875af1158015610e21573d6000803e3d6000fd5b505050506040513d601f19601f82011682018060405250810190610e459190611940565b5060055460405163a9059cbb60e01b8152336004820152602481018390526001600160a01b039091169063a9059cbb906044016020604051808303816000875af1158015610e97573d6000803e3d6000fd5b505050506040513d601f19601f82011682018060405250810190610ebb9190611940565b50611020565b610eff600a54610edb600a54610d6e6103e86103e76115b7565b610ee59190611880565b610d97600954610d6e600a54610d6e6103e86103e76115b7565b90508060096000828254610f139190611962565b9250508190555083600a6000828254610f2c9190611880565b90915550506006546040516323b872dd60e01b81526001600160a01b03909116906323b872dd90610f6590339030908a9060040161191c565b6020604051808303816000875af1158015610f84573d6000803e3d6000fd5b505050506040513d601f19601f82011682018060405250810190610fa89190611940565b5060065460405163a9059cbb60e01b8152336004820152602481018390526001600160a01b039091169063a9059cbb906044016020604051808303816000875af1158015610ffa573d6000803e3d6000fd5b505050506040513d601f19601f8201168201806040525081019061101e9190611940565b505b949350505050565b6000338161103682866110b1565b9050838110156110965760405162461bcd60e51b815260206004820152602560248201527f45524332303a2064656372656173656420616c6c6f77616e63652062656c6f77604482015264207a65726f60d81b6064820152608401610403565b61039482868684036110dc565b60003361036f81858561124b565b6001600160a01b03918216600090815260016020908152604080832093909416825291909152205490565b6001600160a01b03831661113e5760405162461bcd60e51b8152602060048201526024808201527f45524332303a20617070726f76652066726f6d20746865207a65726f206164646044820152637265737360e01b6064820152608401610403565b6001600160a01b03821661119f5760405162461bcd60e51b815260206004820152602260248201527f45524332303a20617070726f766520746f20746865207a65726f206164647265604482015261737360f01b6064820152608401610403565b6001600160a01b0383811660008181526001602090815260408083209487168084529482529182902085905590518481527f8c5be1e5ebec7d5bd14f71427d1e84f3dd0314c0f7b2291e5b200ac8c7c3b92591015b60405180910390a3505050565b600061120d84846110b1565b9050600019811461124557818110156112385760405162461bcd60e51b8152600401610403906118ac565b61124584848484036110dc565b50505050565b6001600160a01b0383166112af5760405162461bcd60e51b815260206004820152602560248201527f45524332303a207472616e736665722066726f6d20746865207a65726f206164604482015264647265737360d81b6064820152608401610403565b6001600160a01b0382166113115760405162461bcd60e51b815260206004820152602360248201527f45524332303a207472616e7366657220746f20746865207a65726f206164647260448201526265737360e81b6064820152608401610403565b6001600160a01b038316600090815260208190526040902054818110156113895760405162461bcd60e51b815260206004820152602660248201527f45524332303a207472616e7366657220616d6f756e7420657863656564732062604482015265616c616e636560d01b6064820152608401610403565b6001600160a01b03848116600081815260208181526040808320878703905593871680835291849020805487019055925185815290927fddf252ad1be2c89b69c2b068fc378daa952ba7f163c4a11628f55a4df523b3ef910160405180910390a3611245565b60008260000361140157506000610375565b600061140d83856118e3565b90508261141a85836118fa565b146114715760405162461bcd60e51b815260206004820152602160248201527f536166654d6174683a206d756c7469706c69636174696f6e206f766572666c6f6044820152607760f81b6064820152608401610403565b9392505050565b60006114848383611614565b50600192915050565b6001600160a01b0382166114ed5760405162461bcd60e51b815260206004820152602160248201527f45524332303a206275726e2066726f6d20746865207a65726f206164647265736044820152607360f81b6064820152608401610403565b6001600160a01b038216600090815260208190526040902054818110156115615760405162461bcd60e51b815260206004820152602260248201527f45524332303a206275726e20616d6f756e7420657863656564732062616c616e604482015261636560f01b6064820152608401610403565b6001600160a01b0383166000818152602081815260408083208686039055600280548790039055518581529192917fddf252ad1be2c89b69c2b068fc378daa952ba7f163c4a11628f55a4df523b3ef91016111f4565b60008082116116085760405162461bcd60e51b815260206004820152601a60248201527f536166654d6174683a206469766973696f6e206279207a65726f0000000000006044820152606401610403565b600061102083856118fa565b6001600160a01b03821661166a5760405162461bcd60e51b815260206004820152601f60248201527f45524332303a206d696e7420746f20746865207a65726f2061646472657373006044820152606401610403565b806002600082825461167c9190611880565b90915550506001600160a01b038216600081815260208181526040808320805486019055518481527fddf252ad1be2c89b69c2b068fc378daa952ba7f163c4a11628f55a4df523b3ef910160405180910390a35050565b600060208083528351808285015260005b81811015611700578581018301518582016040015282016116e4565b506000604082860101526040601f19601f8301168501019250505092915050565b80356001600160a01b038116811461173857600080fd5b919050565b6000806040838503121561175057600080fd5b61175983611721565b946020939093013593505050565b60008060006060848603121561177c57600080fd5b61178584611721565b925061179360208501611721565b9150604084013590509250925092565b6000806000606084860312156117b857600080fd5b505081359360208301359350604090920135919050565b6000602082840312156117e157600080fd5b5035919050565b6000602082840312156117fa57600080fd5b61147182611721565b6000806040838503121561181657600080fd5b61181f83611721565b915061182d60208401611721565b90509250929050565b600181811c9082168061184a57607f821691505b6020821081036108a157634e487b7160e01b600052602260045260246000fd5b634e487b7160e01b600052601160045260246000fd5b808201808211156103755761037561186a565b6000602082840312156118a557600080fd5b5051919050565b6020808252601d908201527f45524332303a20696e73756666696369656e7420616c6c6f77616e6365000000604082015260600190565b80820281158282048414176103755761037561186a565b60008261191757634e487b7160e01b600052601260045260246000fd5b500490565b6001600160a01b039384168152919092166020820152604081019190915260600190565b60006020828403121561195257600080fd5b8151801515811461147157600080fd5b818103818111156103755761037561186a56fea26469706673582212207ab38b1dfcd226ef6685c4df7eef77bf7d55756ab12f6f32adb9afd4adef8aee64736f6c63430008130033",
    "linkReferences": {}
  },
  "methodIdentifiers": {
    "LPToken()": "011cee36",
    "_sqrt(uint256)": "6a263f02",
    "addLiquidity(uint256,uint256,uint256)": "422f1043",
    "allowance(address,address)": "dd62ed3e",
    "approve(address,uint256)": "095ea7b3",
    "balanceOf(address)": "70a08231",
    "decimals()": "313ce567",
    "decreaseAllowance(address,uint256)": "a457c2d7",
    "increaseAllowance(address,uint256)": "39509351",
    "name()": "06fdde03",
    "removeLiquidity(uint256,uint256,uint256)": "857620e1",
    "swap(uint256,uint256,uint256)": "9d9892cd",
    "symbol()": "95d89b41",
    "tokenX()": "16dc165b",
    "tokenY()": "b7d19fc4",
    "totalSupply()": "18160ddd",
    "totalSupply_()": "324536eb",
    "transfer(address,uint256)": "a9059cbb",
    "transferFrom(address,address,uint256)": "23b872dd"
  },
  "id": 24
}