{
  "abi": [
    {
      "inputs": [
        {
          "internalType": "address",
          "name": "_tokenX_contract",
          "type": "address"
        },
        {
          "internalType": "address",
          "name": "_tokenY_contract",
          "type": "address"
        }
      ],
      "stateMutability": "nonpayable",
      "type": "constructor"
    },
    {
      "anonymous": false,
      "inputs": [
        {
          "indexed": true,
          "internalType": "address",
          "name": "owner",
          "type": "address"
        },
        {
          "indexed": true,
          "internalType": "address",
          "name": "spender",
          "type": "address"
        },
        {
          "indexed": false,
          "internalType": "uint256",
          "name": "value",
          "type": "uint256"
        }
      ],
      "name": "Approval",
      "type": "event"
    },
    {
      "anonymous": false,
      "inputs": [
        {
          "indexed": true,
          "internalType": "address",
          "name": "from",
          "type": "address"
        },
        {
          "indexed": true,
          "internalType": "address",
          "name": "to",
          "type": "address"
        },
        {
          "indexed": false,
          "internalType": "uint256",
          "name": "value",
          "type": "uint256"
        }
      ],
      "name": "Transfer",
      "type": "event"
    },
    {
      "inputs": [
        {
          "internalType": "uint256",
          "name": "tokenXAmount",
          "type": "uint256"
        },
        {
          "internalType": "uint256",
          "name": "tokenYAmount",
          "type": "uint256"
        },
        {
          "internalType": "uint256",
          "name": "minimumLPTokenAmount",
          "type": "uint256"
        }
      ],
      "name": "addLiquidity",
      "outputs": [
        {
          "internalType": "uint256",
          "name": "LPTokenAmount",
          "type": "uint256"
        }
      ],
      "stateMutability": "nonpayable",
      "type": "function"
    },
    {
      "inputs": [
        {
          "internalType": "address",
          "name": "owner",
          "type": "address"
        },
        {
          "internalType": "address",
          "name": "spender",
          "type": "address"
        }
      ],
      "name": "allowance",
      "outputs": [
        {
          "internalType": "uint256",
          "name": "",
          "type": "uint256"
        }
      ],
      "stateMutability": "view",
      "type": "function"
    },
    {
      "inputs": [
        {
          "internalType": "address",
          "name": "spender",
          "type": "address"
        },
        {
          "internalType": "uint256",
          "name": "amount",
          "type": "uint256"
        }
      ],
      "name": "approve",
      "outputs": [
        {
          "internalType": "bool",
          "name": "",
          "type": "bool"
        }
      ],
      "stateMutability": "nonpayable",
      "type": "function"
    },
    {
      "inputs": [
        {
          "internalType": "address",
          "name": "account",
          "type": "address"
        }
      ],
      "name": "balanceOf",
      "outputs": [
        {
          "internalType": "uint256",
          "name": "",
          "type": "uint256"
        }
      ],
      "stateMutability": "view",
      "type": "function"
    },
    {
      "inputs": [],
      "name": "decimals",
      "outputs": [
        {
          "internalType": "uint8",
          "name": "",
          "type": "uint8"
        }
      ],
      "stateMutability": "view",
      "type": "function"
    },
    {
      "inputs": [
        {
          "internalType": "address",
          "name": "spender",
          "type": "address"
        },
        {
          "internalType": "uint256",
          "name": "subtractedValue",
          "type": "uint256"
        }
      ],
      "name": "decreaseAllowance",
      "outputs": [
        {
          "internalType": "bool",
          "name": "",
          "type": "bool"
        }
      ],
      "stateMutability": "nonpayable",
      "type": "function"
    },
    {
      "inputs": [
        {
          "internalType": "address",
          "name": "spender",
          "type": "address"
        },
        {
          "internalType": "uint256",
          "name": "addedValue",
          "type": "uint256"
        }
      ],
      "name": "increaseAllowance",
      "outputs": [
        {
          "internalType": "bool",
          "name": "",
          "type": "bool"
        }
      ],
      "stateMutability": "nonpayable",
      "type": "function"
    },
    {
      "inputs": [],
      "name": "name",
      "outputs": [
        {
          "internalType": "string",
          "name": "",
          "type": "string"
        }
      ],
      "stateMutability": "view",
      "type": "function"
    },
    {
      "inputs": [
        {
          "internalType": "uint256",
          "name": "LPTokenAmount",
          "type": "uint256"
        },
        {
          "internalType": "uint256",
          "name": "minimumTokenXAmount",
          "type": "uint256"
        },
        {
          "internalType": "uint256",
          "name": "minimumTokenYAmount",
          "type": "uint256"
        }
      ],
      "name": "removeLiquidity",
      "outputs": [
        {
          "internalType": "uint256",
          "name": "",
          "type": "uint256"
        },
        {
          "internalType": "uint256",
          "name": "",
          "type": "uint256"
        }
      ],
      "stateMutability": "nonpayable",
      "type": "function"
    },
    {
      "inputs": [
        {
          "internalType": "uint256",
          "name": "tokenXAmount",
          "type": "uint256"
        },
        {
          "internalType": "uint256",
          "name": "tokenYAmount",
          "type": "uint256"
        },
        {
          "internalType": "uint256",
          "name": "tokenMinimumOutputAmount",
          "type": "uint256"
        }
      ],
      "name": "swap",
      "outputs": [
        {
          "internalType": "uint256",
          "name": "outputAmount",
          "type": "uint256"
        }
      ],
      "stateMutability": "nonpayable",
      "type": "function"
    },
    {
      "inputs": [],
      "name": "symbol",
      "outputs": [
        {
          "internalType": "string",
          "name": "",
          "type": "string"
        }
      ],
      "stateMutability": "view",
      "type": "function"
    },
    {
      "inputs": [],
      "name": "totalSupply",
      "outputs": [
        {
          "internalType": "uint256",
          "name": "",
          "type": "uint256"
        }
      ],
      "stateMutability": "view",
      "type": "function"
    },
    {
      "inputs": [
        {
          "internalType": "address",
          "name": "to",
          "type": "address"
        },
        {
          "internalType": "uint256",
          "name": "lpAmount",
          "type": "uint256"
        }
      ],
      "name": "transfer",
      "outputs": [
        {
          "internalType": "bool",
          "name": "",
          "type": "bool"
        }
      ],
      "stateMutability": "nonpayable",
      "type": "function"
    },
    {
      "inputs": [
        {
          "internalType": "address",
          "name": "from",
          "type": "address"
        },
        {
          "internalType": "address",
          "name": "to",
          "type": "address"
        },
        {
          "internalType": "uint256",
          "name": "amount",
          "type": "uint256"
        }
      ],
      "name": "transferFrom",
      "outputs": [
        {
          "internalType": "bool",
          "name": "",
          "type": "bool"
        }
      ],
      "stateMutability": "nonpayable",
      "type": "function"
    }
  ],
  "bytecode": {
    "object": "0x60806040523480156200001157600080fd5b506040516200204338038062002043833981016040819052620000349162000115565b6040518060400160405280600781526020016626282a37b5b2b760c91b8152506040518060400160405280600281526020016104c560f41b8152508160039081620000809190620001f2565b5060046200008f8282620001f2565b5050600580546001600160a01b039485166001600160a01b03199182168117909255600680549490951693811684179094556009805490941617909255600a8054670de0b6b3a7640000600b556001600160a81b031916909117600160a01b17905550620002be565b80516001600160a01b03811681146200011057600080fd5b919050565b600080604083850312156200012957600080fd5b6200013483620000f8565b91506200014460208401620000f8565b90509250929050565b634e487b7160e01b600052604160045260246000fd5b600181811c908216806200017857607f821691505b6020821081036200019957634e487b7160e01b600052602260045260246000fd5b50919050565b601f821115620001ed57600081815260208120601f850160051c81016020861015620001c85750805b601f850160051c820191505b81811015620001e957828155600101620001d4565b5050505b505050565b81516001600160401b038111156200020e576200020e6200014d565b62000226816200021f845462000163565b846200019f565b602080601f8311600181146200025e5760008415620002455750858301515b600019600386901b1c1916600185901b178555620001e9565b600085815260208120601f198616915b828110156200028f578886015182559484019460019091019084016200026e565b5085821015620002ae5787850151600019600388901b60f8161c191681555b5050505050600190811b01905550565b611d7580620002ce6000396000f3fe608060405234801561001057600080fd5b50600436106100ea5760003560e01c806370a082311161008c5780639d9892cd116100665780639d9892cd146101e3578063a457c2d7146101f6578063a9059cbb14610209578063dd62ed3e1461021f57600080fd5b806370a082311461018a578063857620e1146101b357806395d89b41146101db57600080fd5b806323b872dd116100c857806323b872dd14610142578063313ce567146101555780633950935114610164578063422f10431461017757600080fd5b806306fdde03146100ef578063095ea7b31461010d57806318160ddd14610130575b600080fd5b6100f7610232565b60405161010491906119e8565b60405180910390f35b61012061011b366004611a17565b6102c4565b6040519015158152602001610104565b6002545b604051908152602001610104565b610120610150366004611a41565b6102de565b60405160128152602001610104565b610120610172366004611a17565b610304565b610134610185366004611a7d565b610326565b610134610198366004611aa9565b6001600160a01b031660009081526020819052604090205490565b6101c66101c1366004611a7d565b610a47565b60408051928352602083019190915201610104565b6100f7610d56565b6101346101f1366004611a7d565b610d65565b610120610204366004611a17565b61123f565b610120610217366004611a17565b600092915050565b61013461022d366004611ac4565b6112c5565b60606003805461024190611af7565b80601f016020809104026020016040519081016040528092919081815260200182805461026d90611af7565b80156102ba5780601f1061028f576101008083540402835291602001916102ba565b820191906000526020600020905b81548152906001019060200180831161029d57829003601f168201915b5050505050905090565b6000336102d28185856112f0565b60019150505b92915050565b6000336102ec858285611415565b6102f785858561145f565b60019150505b9392505050565b6000336102d281858561031783836112c5565b6103219190611b47565b6112f0565b600083158015610334575082155b156103a25760405162461bcd60e51b815260206004820152603360248201527f4164644c697175696469747920696e76616c696420696e697469616c697a6174604482015272696f6e20636865636b206572726f72202d203160681b60648201526084015b60405180910390fd5b8360000361040e5760405162461bcd60e51b815260206004820152603360248201527f4164644c697175696469747920696e76616c696420696e697469616c697a617460448201527234b7b71031b432b1b59032b93937b91016901960691b6064820152608401610399565b8260000361047a5760405162461bcd60e51b815260206004820152603360248201527f4164644c697175696469747920696e76616c696420696e697469616c697a6174604482015272696f6e20636865636b206572726f72202d203360681b6064820152608401610399565b600954604051636eb1769f60e11b815233600482015230602482015285916001600160a01b03169063dd62ed3e90604401602060405180830381865afa1580156104c8573d6000803e3d6000fd5b505050506040513d601f19601f820116820180604052508101906104ec9190611b5a565b101561050a5760405162461bcd60e51b815260040161039990611b73565b600a54604051636eb1769f60e11b815233600482015230602482015284916001600160a01b03169063dd62ed3e90604401602060405180830381865afa158015610558573d6000803e3d6000fd5b505050506040513d601f19601f8201168201806040525081019061057c9190611b5a565b101561059a5760405162461bcd60e51b815260040161039990611b73565b6009546040516370a0823160e01b815233600482015285916001600160a01b0316906370a0823190602401602060405180830381865afa1580156105e2573d6000803e3d6000fd5b505050506040513d601f19601f820116820180604052508101906106069190611b5a565b10156106245760405162461bcd60e51b815260040161039990611baa565b600a546040516370a0823160e01b815233600482015284916001600160a01b0316906370a0823190602401602060405180830381865afa15801561066c573d6000803e3d6000fd5b505050506040513d601f19601f820116820180604052508101906106909190611b5a565b10156106ae5760405162461bcd60e51b815260040161039990611baa565b6009546040516370a0823160e01b81523060048201526001600160a01b03909116906370a0823190602401602060405180830381865afa1580156106f6573d6000803e3d6000fd5b505050506040513d601f19601f8201168201806040525081019061071a9190611b5a565b600755600a546040516370a0823160e01b81523060048201526001600160a01b03909116906370a0823190602401602060405180830381865afa158015610765573d6000803e3d6000fd5b505050506040513d601f19601f820116820180604052508101906107899190611b5a565b600855600a54600160a01b900460ff16156107ec576107d8600b54600854856107b29190611b47565b6007546107bf9088611b47565b6107c99190611bf0565b6107d39190611c1d565b6115c4565b600a805460ff60a01b1916905590506108ba565b836008546107fa9190611bf0565b836007546108089190611bf0565b1461086d5760405162461bcd60e51b815260206004820152602f60248201527f4164644c697175696469747920696d62616c616e636520616464206c6971756960448201526e3234ba3c903a32b9ba1032b93937b960891b6064820152608401610399565b6108b76007548561087d60025490565b6108879190611bf0565b6108919190611c1d565b6008548561089e60025490565b6108a89190611bf0565b6108b29190611c1d565b6116a8565b90505b818110156109165760405162461bcd60e51b8152602060048201526024808201527f4164644c6971756964697479206d696e696d756d204c502072657475726e2045604482015263393937b960e11b6064820152608401610399565b61092033826116be565b83600760008282546109329190611b47565b92505081905550826008600082825461094b9190611b47565b90915550506009546040516323b872dd60e01b81526001600160a01b03909116906323b872dd9061098490339030908990600401611c3f565b6020604051808303816000875af11580156109a3573d6000803e3d6000fd5b505050506040513d601f19601f820116820180604052508101906109c79190611c63565b50600a546040516323b872dd60e01b81526001600160a01b03909116906323b872dd906109fc90339030908890600401611c3f565b6020604051808303816000875af1158015610a1b573d6000803e3d6000fd5b505050506040513d601f19601f82011682018060405250810190610a3f9190611c63565b509392505050565b336000908152602081905260408120548190851115610abc5760405162461bcd60e51b815260206004820152602b60248201527f52656d6f76654c697175696469747920657863656564732062616c616e63652060448201526a31b432b1b59032b93937b960a91b6064820152608401610399565b6009546040516370a0823160e01b81523060048201526001600160a01b03909116906370a0823190602401602060405180830381865afa158015610b04573d6000803e3d6000fd5b505050506040513d601f19601f82011682018060405250810190610b289190611b5a565b600755600a546040516370a0823160e01b81523060048201526001600160a01b03909116906370a0823190602401602060405180830381865afa158015610b73573d6000803e3d6000fd5b505050506040513d601f19601f82011682018060405250810190610b979190611b5a565b6008556000610ba560025490565b86600754610bb39190611bf0565b610bbd9190611c1d565b90506000610bca60025490565b87600854610bd89190611bf0565b610be29190611c1d565b905085821015610c045760405162461bcd60e51b815260040161039990611c85565b84811015610c245760405162461bcd60e51b815260040161039990611c85565b610c2e338861177e565b8160076000828254610c409190611cc9565b925050819055508060086000828254610c599190611cc9565b909155505060095460405163a9059cbb60e01b8152336004820152602481018490526001600160a01b039091169063a9059cbb906044016020604051808303816000875af1158015610caf573d6000803e3d6000fd5b505050506040513d601f19601f82011682018060405250810190610cd39190611c63565b50600a5460405163a9059cbb60e01b8152336004820152602481018390526001600160a01b039091169063a9059cbb906044016020604051808303816000875af1158015610d25573d6000803e3d6000fd5b505050506040513d601f19601f82011682018060405250810190610d499190611c63565b5090969095509350505050565b60606004805461024190611af7565b600083158015610d73575082155b15610db05760405162461bcd60e51b815260206004820152600d60248201526c1a5b9d985b1a59081a5b9c1d5d609a1b6044820152606401610399565b8315801590610dbe57508215155b15610dfb5760405162461bcd60e51b815260206004820152600d60248201526c1a5b9d985b1a59081a5b9c1d5d609a1b6044820152606401610399565b6009546040516370a0823160e01b81523060048201526001600160a01b03909116906370a0823190602401602060405180830381865afa158015610e43573d6000803e3d6000fd5b505050506040513d601f19601f82011682018060405250810190610e679190611b5a565b600755600a546040516370a0823160e01b81523060048201526001600160a01b03909116906370a0823190602401602060405180830381865afa158015610eb2573d6000803e3d6000fd5b505050506040513d601f19601f82011682018060405250810190610ed69190611b5a565b60085560075415801590610eec57506000600754115b610ef557600080fd5b83156110bf576103e8610f0a856103e7611bf0565b610f149190611c1d565b600754610f219190611b47565b6103e8610f30866103e7611bf0565b610f3a9190611c1d565b600854610f479190611bf0565b610f519190611c1d565b905081811015610f735760405162461bcd60e51b815260040161039990611cdc565b610f9c6040518060400160405280600781526020016637baba383aba1d60c91b815250826118a8565b8060086000828254610fae9190611cc9565b925050819055508360076000828254610fc79190611b47565b90915550506009546040516323b872dd60e01b81526001600160a01b03909116906323b872dd9061100090339030908990600401611c3f565b6020604051808303816000875af115801561101f573d6000803e3d6000fd5b505050506040513d601f19601f820116820180604052508101906110439190611c63565b50600a5460405163a9059cbb60e01b8152336004820152602481018390526001600160a01b039091169063a9059cbb906044016020604051808303816000875af1158015611095573d6000803e3d6000fd5b505050506040513d601f19601f820116820180604052508101906110b99190611c63565b506102fd565b6103e86110ce846103e7611bf0565b6110d89190611c1d565b6008546110e59190611b47565b6103e86110f4856103e7611bf0565b6110fe9190611c1d565b60075461110b9190611bf0565b6111159190611c1d565b9050818110156111375760405162461bcd60e51b815260040161039990611cdc565b6111606040518060400160405280600781526020016637baba383aba1d60c91b815250826118a8565b80600760008282546111729190611cc9565b92505081905550836008600082825461118b9190611b47565b9091555050600a546040516323b872dd60e01b81526001600160a01b03909116906323b872dd906111c490339030908890600401611c3f565b6020604051808303816000875af11580156111e3573d6000803e3d6000fd5b505050506040513d601f19601f820116820180604052508101906112079190611c63565b5060095460405163a9059cbb60e01b8152336004820152602481018390526001600160a01b039091169063a9059cbb906044016109fc565b6000338161124d82866112c5565b9050838110156112ad5760405162461bcd60e51b815260206004820152602560248201527f45524332303a2064656372656173656420616c6c6f77616e63652062656c6f77604482015264207a65726f60d81b6064820152608401610399565b6112ba82868684036112f0565b506001949350505050565b6001600160a01b03918216600090815260016020908152604080832093909416825291909152205490565b6001600160a01b0383166113525760405162461bcd60e51b8152602060048201526024808201527f45524332303a20617070726f76652066726f6d20746865207a65726f206164646044820152637265737360e01b6064820152608401610399565b6001600160a01b0382166113b35760405162461bcd60e51b815260206004820152602260248201527f45524332303a20617070726f766520746f20746865207a65726f206164647265604482015261737360f01b6064820152608401610399565b6001600160a01b0383811660008181526001602090815260408083209487168084529482529182902085905590518481527f8c5be1e5ebec7d5bd14f71427d1e84f3dd0314c0f7b2291e5b200ac8c7c3b92591015b60405180910390a3505050565b600061142184846112c5565b90506000198114611459578181101561144c5760405162461bcd60e51b815260040161039990611b73565b61145984848484036112f0565b50505050565b6001600160a01b0383166114c35760405162461bcd60e51b815260206004820152602560248201527f45524332303a207472616e736665722066726f6d20746865207a65726f206164604482015264647265737360d81b6064820152608401610399565b6001600160a01b0382166115255760405162461bcd60e51b815260206004820152602360248201527f45524332303a207472616e7366657220746f20746865207a65726f206164647260448201526265737360e81b6064820152608401610399565b6001600160a01b0383166000908152602081905260409020548181101561155e5760405162461bcd60e51b815260040161039990611baa565b6001600160a01b03848116600081815260208181526040808320878703905593871680835291849020805487019055925185815290927fddf252ad1be2c89b69c2b068fc378daa952ba7f163c4a11628f55a4df523b3ef910160405180910390a3611459565b6000816000036115d657506000919050565b600060016115e3846118ed565b901c6001901b905060018184816115fc576115fc611c07565b048201901c9050600181848161161457611614611c07565b048201901c9050600181848161162c5761162c611c07565b048201901c9050600181848161164457611644611c07565b048201901c9050600181848161165c5761165c611c07565b048201901c9050600181848161167457611674611c07565b048201901c9050600181848161168c5761168c611c07565b048201901c90506102fd818285816116a6576116a6611c07565b045b60008183106116b757816102fd565b5090919050565b6001600160a01b0382166117145760405162461bcd60e51b815260206004820152601f60248201527f45524332303a206d696e7420746f20746865207a65726f2061646472657373006044820152606401610399565b80600260008282546117269190611b47565b90915550506001600160a01b038216600081815260208181526040808320805486019055518481527fddf252ad1be2c89b69c2b068fc378daa952ba7f163c4a11628f55a4df523b3ef910160405180910390a35b5050565b6001600160a01b0382166117de5760405162461bcd60e51b815260206004820152602160248201527f45524332303a206275726e2066726f6d20746865207a65726f206164647265736044820152607360f81b6064820152608401610399565b6001600160a01b038216600090815260208190526040902054818110156118525760405162461bcd60e51b815260206004820152602260248201527f45524332303a206275726e20616d6f756e7420657863656564732062616c616e604482015261636560f01b6064820152608401610399565b6001600160a01b0383166000818152602081815260408083208686039055600280548790039055518581529192917fddf252ad1be2c89b69c2b068fc378daa952ba7f163c4a11628f55a4df523b3ef9101611408565b61177a82826040516024016118be929190611d1d565b60408051601f198184030181529190526020810180516001600160e01b03166309710a9d60e41b179052611981565b600080608083901c1561190257608092831c92015b604083901c1561191457604092831c92015b602083901c1561192657602092831c92015b601083901c1561193857601092831c92015b600883901c1561194a57600892831c92015b600483901c1561195c57600492831c92015b600283901c1561196e57600292831c92015b600183901c156102d85760010192915050565b80516a636f6e736f6c652e6c6f67602083016000808483855afa5050505050565b6000815180845260005b818110156119c8576020818501810151868301820152016119ac565b506000602082860101526020601f19601f83011685010191505092915050565b6020815260006102fd60208301846119a2565b80356001600160a01b0381168114611a1257600080fd5b919050565b60008060408385031215611a2a57600080fd5b611a33836119fb565b946020939093013593505050565b600080600060608486031215611a5657600080fd5b611a5f846119fb565b9250611a6d602085016119fb565b9150604084013590509250925092565b600080600060608486031215611a9257600080fd5b505081359360208301359350604090920135919050565b600060208284031215611abb57600080fd5b6102fd826119fb565b60008060408385031215611ad757600080fd5b611ae0836119fb565b9150611aee602084016119fb565b90509250929050565b600181811c90821680611b0b57607f821691505b602082108103611b2b57634e487b7160e01b600052602260045260246000fd5b50919050565b634e487b7160e01b600052601160045260246000fd5b808201808211156102d8576102d8611b31565b600060208284031215611b6c57600080fd5b5051919050565b6020808252601d908201527f45524332303a20696e73756666696369656e7420616c6c6f77616e6365000000604082015260600190565b60208082526026908201527f45524332303a207472616e7366657220616d6f756e7420657863656564732062604082015265616c616e636560d01b606082015260800190565b80820281158282048414176102d8576102d8611b31565b634e487b7160e01b600052601260045260246000fd5b600082611c3a57634e487b7160e01b600052601260045260246000fd5b500490565b6001600160a01b039384168152919092166020820152604081019190915260600190565b600060208284031215611c7557600080fd5b815180151581146102fd57600080fd5b60208082526024908201527f52656d6f76654c6971756964697479206d696e696d756d2072657475726e2065604082015263393937b960e11b606082015260800190565b818103818111156102d8576102d8611b31565b60208082526021908201527f6d696e696d756d206f7570757420616d6f756e7420636865636b206661696c656040820152601960fa1b606082015260800190565b604081526000611d3060408301856119a2565b9050826020830152939250505056fea26469706673582212207f01701e05eb2856ad256671033912d7c6cfc603e7e3acb951200a742136b5ea64736f6c63430008130033",
    "linkReferences": {}
  },
  "methodIdentifiers": {
    "addLiquidity(uint256,uint256,uint256)": "422f1043",
    "allowance(address,address)": "dd62ed3e",
    "approve(address,uint256)": "095ea7b3",
    "balanceOf(address)": "70a08231",
    "decimals()": "313ce567",
    "decreaseAllowance(address,uint256)": "a457c2d7",
    "increaseAllowance(address,uint256)": "39509351",
    "name()": "06fdde03",
    "removeLiquidity(uint256,uint256,uint256)": "857620e1",
    "swap(uint256,uint256,uint256)": "9d9892cd",
    "symbol()": "95d89b41",
    "totalSupply()": "18160ddd",
    "transfer(address,uint256)": "a9059cbb",
    "transferFrom(address,address,uint256)": "23b872dd"
  },
  "id": 22
}