{
  "abi": [
    {
      "inputs": [
        {
          "internalType": "address",
          "name": "tokenX",
          "type": "address"
        },
        {
          "internalType": "address",
          "name": "tokenY",
          "type": "address"
        }
      ],
      "stateMutability": "nonpayable",
      "type": "constructor"
    },
    {
      "anonymous": false,
      "inputs": [
        {
          "indexed": true,
          "internalType": "address",
          "name": "owner",
          "type": "address"
        },
        {
          "indexed": true,
          "internalType": "address",
          "name": "spender",
          "type": "address"
        },
        {
          "indexed": false,
          "internalType": "uint256",
          "name": "value",
          "type": "uint256"
        }
      ],
      "name": "Approval",
      "type": "event"
    },
    {
      "anonymous": false,
      "inputs": [
        {
          "indexed": true,
          "internalType": "address",
          "name": "from",
          "type": "address"
        },
        {
          "indexed": true,
          "internalType": "address",
          "name": "to",
          "type": "address"
        },
        {
          "indexed": false,
          "internalType": "uint256",
          "name": "value",
          "type": "uint256"
        }
      ],
      "name": "Transfer",
      "type": "event"
    },
    {
      "inputs": [
        {
          "internalType": "uint256",
          "name": "tokenXAmount",
          "type": "uint256"
        },
        {
          "internalType": "uint256",
          "name": "tokenYAmount",
          "type": "uint256"
        },
        {
          "internalType": "uint256",
          "name": "minimumLPTokenAmount",
          "type": "uint256"
        }
      ],
      "name": "addLiquidity",
      "outputs": [
        {
          "internalType": "uint256",
          "name": "LPTokenAmount",
          "type": "uint256"
        }
      ],
      "stateMutability": "nonpayable",
      "type": "function"
    },
    {
      "inputs": [
        {
          "internalType": "address",
          "name": "owner",
          "type": "address"
        },
        {
          "internalType": "address",
          "name": "spender",
          "type": "address"
        }
      ],
      "name": "allowance",
      "outputs": [
        {
          "internalType": "uint256",
          "name": "",
          "type": "uint256"
        }
      ],
      "stateMutability": "view",
      "type": "function"
    },
    {
      "inputs": [
        {
          "internalType": "address",
          "name": "spender",
          "type": "address"
        },
        {
          "internalType": "uint256",
          "name": "amount",
          "type": "uint256"
        }
      ],
      "name": "approve",
      "outputs": [
        {
          "internalType": "bool",
          "name": "",
          "type": "bool"
        }
      ],
      "stateMutability": "nonpayable",
      "type": "function"
    },
    {
      "inputs": [
        {
          "internalType": "address",
          "name": "account",
          "type": "address"
        }
      ],
      "name": "balanceOf",
      "outputs": [
        {
          "internalType": "uint256",
          "name": "",
          "type": "uint256"
        }
      ],
      "stateMutability": "view",
      "type": "function"
    },
    {
      "inputs": [],
      "name": "decimals",
      "outputs": [
        {
          "internalType": "uint8",
          "name": "",
          "type": "uint8"
        }
      ],
      "stateMutability": "view",
      "type": "function"
    },
    {
      "inputs": [
        {
          "internalType": "address",
          "name": "spender",
          "type": "address"
        },
        {
          "internalType": "uint256",
          "name": "subtractedValue",
          "type": "uint256"
        }
      ],
      "name": "decreaseAllowance",
      "outputs": [
        {
          "internalType": "bool",
          "name": "",
          "type": "bool"
        }
      ],
      "stateMutability": "nonpayable",
      "type": "function"
    },
    {
      "inputs": [],
      "name": "fee_x",
      "outputs": [
        {
          "internalType": "uint256",
          "name": "",
          "type": "uint256"
        }
      ],
      "stateMutability": "view",
      "type": "function"
    },
    {
      "inputs": [],
      "name": "fee_y",
      "outputs": [
        {
          "internalType": "uint256",
          "name": "",
          "type": "uint256"
        }
      ],
      "stateMutability": "view",
      "type": "function"
    },
    {
      "inputs": [
        {
          "internalType": "address",
          "name": "spender",
          "type": "address"
        },
        {
          "internalType": "uint256",
          "name": "addedValue",
          "type": "uint256"
        }
      ],
      "name": "increaseAllowance",
      "outputs": [
        {
          "internalType": "bool",
          "name": "",
          "type": "bool"
        }
      ],
      "stateMutability": "nonpayable",
      "type": "function"
    },
    {
      "inputs": [],
      "name": "name",
      "outputs": [
        {
          "internalType": "string",
          "name": "",
          "type": "string"
        }
      ],
      "stateMutability": "view",
      "type": "function"
    },
    {
      "inputs": [
        {
          "internalType": "uint256",
          "name": "LPTokenAmount",
          "type": "uint256"
        },
        {
          "internalType": "uint256",
          "name": "minimumTokenXAmount",
          "type": "uint256"
        },
        {
          "internalType": "uint256",
          "name": "minimumTokenYAmount",
          "type": "uint256"
        }
      ],
      "name": "removeLiquidity",
      "outputs": [
        {
          "internalType": "uint256",
          "name": "rx",
          "type": "uint256"
        },
        {
          "internalType": "uint256",
          "name": "ry",
          "type": "uint256"
        }
      ],
      "stateMutability": "nonpayable",
      "type": "function"
    },
    {
      "inputs": [],
      "name": "reserve_x",
      "outputs": [
        {
          "internalType": "uint256",
          "name": "",
          "type": "uint256"
        }
      ],
      "stateMutability": "view",
      "type": "function"
    },
    {
      "inputs": [],
      "name": "reserve_y",
      "outputs": [
        {
          "internalType": "uint256",
          "name": "",
          "type": "uint256"
        }
      ],
      "stateMutability": "view",
      "type": "function"
    },
    {
      "inputs": [
        {
          "internalType": "uint256",
          "name": "y",
          "type": "uint256"
        }
      ],
      "name": "sqrt",
      "outputs": [
        {
          "internalType": "uint256",
          "name": "z",
          "type": "uint256"
        }
      ],
      "stateMutability": "pure",
      "type": "function"
    },
    {
      "inputs": [
        {
          "internalType": "uint256",
          "name": "tokenXAmount",
          "type": "uint256"
        },
        {
          "internalType": "uint256",
          "name": "tokenYAmount",
          "type": "uint256"
        },
        {
          "internalType": "uint256",
          "name": "tokenMinimumOutputAmount",
          "type": "uint256"
        }
      ],
      "name": "swap",
      "outputs": [
        {
          "internalType": "uint256",
          "name": "outputAmount",
          "type": "uint256"
        }
      ],
      "stateMutability": "nonpayable",
      "type": "function"
    },
    {
      "inputs": [],
      "name": "symbol",
      "outputs": [
        {
          "internalType": "string",
          "name": "",
          "type": "string"
        }
      ],
      "stateMutability": "view",
      "type": "function"
    },
    {
      "inputs": [],
      "name": "token_liquidity_L",
      "outputs": [
        {
          "internalType": "uint256",
          "name": "",
          "type": "uint256"
        }
      ],
      "stateMutability": "view",
      "type": "function"
    },
    {
      "inputs": [],
      "name": "token_x",
      "outputs": [
        {
          "internalType": "address",
          "name": "",
          "type": "address"
        }
      ],
      "stateMutability": "view",
      "type": "function"
    },
    {
      "inputs": [],
      "name": "token_y",
      "outputs": [
        {
          "internalType": "address",
          "name": "",
          "type": "address"
        }
      ],
      "stateMutability": "view",
      "type": "function"
    },
    {
      "inputs": [],
      "name": "totalSupply",
      "outputs": [
        {
          "internalType": "uint256",
          "name": "",
          "type": "uint256"
        }
      ],
      "stateMutability": "view",
      "type": "function"
    },
    {
      "inputs": [
        {
          "internalType": "address",
          "name": "to",
          "type": "address"
        },
        {
          "internalType": "uint256",
          "name": "amount",
          "type": "uint256"
        }
      ],
      "name": "transfer",
      "outputs": [
        {
          "internalType": "bool",
          "name": "",
          "type": "bool"
        }
      ],
      "stateMutability": "nonpayable",
      "type": "function"
    },
    {
      "inputs": [
        {
          "internalType": "address",
          "name": "from",
          "type": "address"
        },
        {
          "internalType": "address",
          "name": "to",
          "type": "address"
        },
        {
          "internalType": "uint256",
          "name": "amount",
          "type": "uint256"
        }
      ],
      "name": "transferFrom",
      "outputs": [
        {
          "internalType": "bool",
          "name": "",
          "type": "bool"
        }
      ],
      "stateMutability": "nonpayable",
      "type": "function"
    }
  ],
  "bytecode": {
    "object": "0x60806040523480156200001157600080fd5b5060405162002103380380620021038339810160408190526200003491620001b9565b6040518060400160405280600381526020016244524d60e81b8152506040518060400160405280600b81526020016a222922a0a6afaa27a5a2a760a91b815250816003908162000085919062000296565b50600462000094828262000296565b505050806001600160a01b0316826001600160a01b031603620000f05760405162461bcd60e51b815260206004820152600f60248201526e73616d6520746f6b656e20782c207960881b60448201526064015b60405180910390fd5b6001600160a01b038216158015906200011157506001600160a01b03811615155b6200015f5760405162461bcd60e51b815260206004820152601960248201527f7a65726f206164647265737320746f6b656e2078206f722079000000000000006044820152606401620000e7565b600580546001600160a01b03199081163317909155600680546001600160a01b039485169083161790556007805492909316911617905562000362565b80516001600160a01b0381168114620001b457600080fd5b919050565b60008060408385031215620001cd57600080fd5b620001d8836200019c565b9150620001e8602084016200019c565b90509250929050565b634e487b7160e01b600052604160045260246000fd5b600181811c908216806200021c57607f821691505b6020821081036200023d57634e487b7160e01b600052602260045260246000fd5b50919050565b601f8211156200029157600081815260208120601f850160051c810160208610156200026c5750805b601f850160051c820191505b818110156200028d5782815560010162000278565b5050505b505050565b81516001600160401b03811115620002b257620002b2620001f1565b620002ca81620002c3845462000207565b8462000243565b602080601f831160018114620003025760008415620002e95750858301515b600019600386901b1c1916600185901b1785556200028d565b600085815260208120601f198616915b82811015620003335788860151825594840194600190910190840162000312565b5085821015620003525787850151600019600388901b60f8161c191681555b5050505050600190811b01905550565b611d9180620003726000396000f3fe608060405234801561001057600080fd5b50600436106101425760003560e01c8063677342ce116100b85780639d9892cd1161007c5780639d9892cd146102a7578063a457c2d7146102ba578063a9059cbb146102cd578063ca432722146102e0578063dd62ed3e146102e9578063e918c908146102fc57600080fd5b8063677342ce1461022857806370a082311461023b578063857620e11461026457806395d89b411461028c57806396ad6a311461029457600080fd5b8063313ce5671161010a578063313ce567146101d857806339509351146101e757806339af00ba146101fa5780633a0dba8214610203578063422f10431461020c578063616016ef1461021f57600080fd5b806306fdde0314610147578063095ea7b314610165578063143cae491461018857806318160ddd146101b357806323b872dd146101c5575b600080fd5b61014f610305565b60405161015c9190611a21565b60405180910390f35b610178610173366004611a52565b610397565b604051901515815260200161015c565b60075461019b906001600160a01b031681565b6040516001600160a01b03909116815260200161015c565b6002545b60405190815260200161015c565b6101786101d3366004611a7c565b6103b1565b6040516012815260200161015c565b6101786101f5366004611a52565b6103d5565b6101b760095481565b6101b7600c5481565b6101b761021a366004611ab8565b6103f7565b6101b7600b5481565b6101b7610236366004611ae4565b6109a0565b6101b7610249366004611afd565b6001600160a01b031660009081526020819052604090205490565b610277610272366004611ab8565b610a10565b6040805192835260208301919091520161015c565b61014f610d9d565b60065461019b906001600160a01b031681565b6101b76102b5366004611ab8565b610dac565b6101786102c8366004611a52565b6113b0565b6101786102db366004611a52565b61142b565b6101b760085481565b6101b76102f7366004611b18565b611439565b6101b7600a5481565b60606003805461031490611b4b565b80601f016020809104026020016040519081016040528092919081815260200182805461034090611b4b565b801561038d5780601f106103625761010080835404028352916020019161038d565b820191906000526020600020905b81548152906001019060200180831161037057829003601f168201915b5050505050905090565b6000336103a5818585611464565b60019150505b92915050565b6000336103bf858285611588565b6103ca8585856115d2565b506001949350505050565b6000336103a58185856103e88383611439565b6103f29190611b95565b611464565b600080841161044d5760405162461bcd60e51b815260206004820152601a60248201527f746f6b656e58416d6f756e74206d75737420657863656564203000000000000060448201526064015b60405180910390fd5b6000831161049d5760405162461bcd60e51b815260206004820152601a60248201527f746f6b656e59416d6f756e74206d7573742065786365656420300000000000006044820152606401610444565b600654604051636eb1769f60e11b815233600482015230602482015285916001600160a01b03169063dd62ed3e90604401602060405180830381865afa1580156104eb573d6000803e3d6000fd5b505050506040513d601f19601f8201168201806040525081019061050f9190611ba8565b101561052d5760405162461bcd60e51b815260040161044490611bc1565b600754604051636eb1769f60e11b815233600482015230602482015284916001600160a01b03169063dd62ed3e90604401602060405180830381865afa15801561057b573d6000803e3d6000fd5b505050506040513d601f19601f8201168201806040525081019061059f9190611ba8565b10156105bd5760405162461bcd60e51b815260040161044490611bc1565b6006546040516370a0823160e01b815233600482015285916001600160a01b0316906370a0823190602401602060405180830381865afa158015610605573d6000803e3d6000fd5b505050506040513d601f19601f820116820180604052508101906106299190611ba8565b10156106475760405162461bcd60e51b815260040161044490611bf8565b6007546040516370a0823160e01b815233600482015284916001600160a01b0316906370a0823190602401602060405180830381865afa15801561068f573d6000803e3d6000fd5b505050506040513d601f19601f820116820180604052508101906106b39190611ba8565b10156106d15760405162461bcd60e51b815260040161044490611bf8565b6006546040516370a0823160e01b81523060048201526001600160a01b03909116906370a0823190602401602060405180830381865afa158015610719573d6000803e3d6000fd5b505050506040513d601f19601f8201168201806040525081019061073d9190611ba8565b6008556007546040516370a0823160e01b81523060048201526001600160a01b03909116906370a0823190602401602060405180830381865afa158015610788573d6000803e3d6000fd5b505050506040513d601f19601f820116820180604052508101906107ac9190611ba8565b60095560006107ba60025490565b6000036107eb576107d46009546008546102369190611c3e565b600a556107e46102368587611c3e565b9050610833565b670de0b6b3a764000060085461080060025490565b61081288670de0b6b3a7640000611c3e565b61081c9190611c3e565b6108269190611c55565b6108309190611c55565b90505b82811161088e5760405162461bcd60e51b815260206004820152602360248201527f746f6b656e5f616d6f756e74203e206d696e696d756d4c50546f6b656e416d6f6044820152621d5b9d60ea1b6064820152608401610444565b6006546040516323b872dd60e01b81526001600160a01b03909116906323b872dd906108c290339030908a90600401611c77565b6020604051808303816000875af11580156108e1573d6000803e3d6000fd5b505050506040513d601f19601f820116820180604052508101906109059190611c9b565b61090e57600080fd5b6007546040516323b872dd60e01b81526001600160a01b03909116906323b872dd9061094290339030908990600401611c77565b6020604051808303816000875af1158015610961573d6000803e3d6000fd5b505050506040513d601f19601f820116820180604052508101906109859190611c9b565b61098e57600080fd5b6109983382611737565b949350505050565b60006003821115610a0157508060006109ba600283611c55565b6109c5906001611b95565b90505b818110156109fb579050806002816109e08186611c55565b6109ea9190611b95565b6109f49190611c55565b90506109c8565b50919050565b8115610a0b575060015b919050565b336000908152602081905260408120548190851115610a855760405162461bcd60e51b815260206004820152602b60248201527f52656d6f76654c697175696469747920657863656564732062616c616e63652060448201526a31b432b1b59032b93937b960a91b6064820152608401610444565b6006546040516370a0823160e01b81523060048201526001600160a01b03909116906370a0823190602401602060405180830381865afa158015610acd573d6000803e3d6000fd5b505050506040513d601f19601f82011682018060405250810190610af19190611ba8565b6008556007546040516370a0823160e01b81523060048201526001600160a01b03909116906370a0823190602401602060405180830381865afa158015610b3c573d6000803e3d6000fd5b505050506040513d601f19601f82011682018060405250810190610b609190611ba8565b600955670de0b6b3a7640000610b7560025490565b86600854670de0b6b3a7640000610b8c9190611c3e565b610b969190611c3e565b610ba09190611c55565b610baa9190611c55565b9150670de0b6b3a7640000610bbe60025490565b86600954670de0b6b3a7640000610bd59190611c3e565b610bdf9190611c3e565b610be99190611c55565b610bf39190611c55565b905083821015610c155760405162461bcd60e51b815260040161044490611cbd565b82811015610c355760405162461bcd60e51b815260040161044490611cbd565b610c6260405180604001604052806002815260200161095960f21b815250683635c9adc5dea000006117f7565b610c8f6040518060400160405280600681526020016509590b08095960d21b81525060085460095461183c565b610c993386611888565b60065460405163a9059cbb60e01b8152336004820152602481018490526001600160a01b039091169063a9059cbb906044016020604051808303816000875af1158015610cea573d6000803e3d6000fd5b505050506040513d601f19601f82011682018060405250810190610d0e9190611c9b565b610d1757600080fd5b60075460405163a9059cbb60e01b8152336004820152602481018390526001600160a01b039091169063a9059cbb906044016020604051808303816000875af1158015610d68573d6000803e3d6000fd5b505050506040513d601f19601f82011682018060405250810190610d8c9190611c9b565b610d9557600080fd5b935093915050565b60606004805461031490611b4b565b60008084118015610dbb575082155b80610dcf5750600083118015610dcf575083155b610dd857600080fd5b600c546006546040516370a0823160e01b81523060048201526001600160a01b03909116906370a0823190602401602060405180830381865afa158015610e23573d6000803e3d6000fd5b505050506040513d601f19601f82011682018060405250810190610e479190611ba8565b610e519190611d01565b600855600b546007546040516370a0823160e01b81523060048201526001600160a01b03909116906370a0823190602401602060405180830381865afa158015610e9f573d6000803e3d6000fd5b505050506040513d601f19601f82011682018060405250810190610ec39190611ba8565b610ecd9190611d01565b60095560008085810361113f57600654604051636eb1769f60e11b815233600482015230602482015287916001600160a01b03169063dd62ed3e90604401602060405180830381865afa158015610f28573d6000803e3d6000fd5b505050506040513d601f19601f82011682018060405250810190610f4c9190611ba8565b1015610f6a5760405162461bcd60e51b815260040161044490611bc1565b84600954610f789190611b95565b915081600954600854610f8b9190611c3e565b610f959190611c55565b90506103e881600854610fa89190611d01565b610fb4906103e7611c3e565b610fbe9190611c55565b92506103e881600854610fd19190611d01565b610fdb9190611c55565b600c6000828254610fec9190611b95565b90915550508383101561103c5760405162461bcd60e51b81526020600482015260186024820152771d1bdad95b935a5b9a5b5d5b53dd5d1c1d5d105b5bdd5b9d60421b6044820152606401610444565b6007546040516323b872dd60e01b81526001600160a01b03909116906323b872dd9061107090339030908a90600401611c77565b6020604051808303816000875af115801561108f573d6000803e3d6000fd5b505050506040513d601f19601f820116820180604052508101906110b39190611c9b565b6110bc57600080fd5b60065460405163a9059cbb60e01b8152336004820152602481018590526001600160a01b039091169063a9059cbb906044016020604051808303816000875af115801561110d573d6000803e3d6000fd5b505050506040513d601f19601f820116820180604052508101906111319190611c9b565b61113a57600080fd5b6113a7565b846000036113a757600754604051636eb1769f60e11b815233600482015230602482015286916001600160a01b03169063dd62ed3e90604401602060405180830381865afa158015611195573d6000803e3d6000fd5b505050506040513d601f19601f820116820180604052508101906111b99190611ba8565b10156111d75760405162461bcd60e51b815260040161044490611bc1565b856008546111e59190611b95565b9050806009546008546111f89190611c3e565b6112029190611c55565b91506103e8826009546112159190611d01565b611221906103e7611c3e565b61122b9190611c55565b92506103e88260095461123e9190611d01565b6112489190611c55565b600b60008282546112599190611b95565b9091555050838310156112a95760405162461bcd60e51b81526020600482015260186024820152771d1bdad95b935a5b9a5b5d5b53dd5d1c1d5d105b5bdd5b9d60421b6044820152606401610444565b6006546040516323b872dd60e01b81526001600160a01b03909116906323b872dd906112dd90339030908b90600401611c77565b6020604051808303816000875af11580156112fc573d6000803e3d6000fd5b505050506040513d601f19601f820116820180604052508101906113209190611c9b565b61132957600080fd5b60075460405163a9059cbb60e01b8152336004820152602481018590526001600160a01b039091169063a9059cbb906044016020604051808303816000875af115801561137a573d6000803e3d6000fd5b505050506040513d601f19601f8201168201806040525081019061139e9190611c9b565b6113a757600080fd5b50509392505050565b600033816113be8286611439565b90508381101561141e5760405162461bcd60e51b815260206004820152602560248201527f45524332303a2064656372656173656420616c6c6f77616e63652062656c6f77604482015264207a65726f60d81b6064820152608401610444565b6103ca8286868403611464565b6000336103a58185856115d2565b6001600160a01b03918216600090815260016020908152604080832093909416825291909152205490565b6001600160a01b0383166114c65760405162461bcd60e51b8152602060048201526024808201527f45524332303a20617070726f76652066726f6d20746865207a65726f206164646044820152637265737360e01b6064820152608401610444565b6001600160a01b0382166115275760405162461bcd60e51b815260206004820152602260248201527f45524332303a20617070726f766520746f20746865207a65726f206164647265604482015261737360f01b6064820152608401610444565b6001600160a01b0383811660008181526001602090815260408083209487168084529482529182902085905590518481527f8c5be1e5ebec7d5bd14f71427d1e84f3dd0314c0f7b2291e5b200ac8c7c3b925910160405180910390a3505050565b60006115948484611439565b905060001981146115cc57818110156115bf5760405162461bcd60e51b815260040161044490611bc1565b6115cc8484848403611464565b50505050565b6001600160a01b0383166116365760405162461bcd60e51b815260206004820152602560248201527f45524332303a207472616e736665722066726f6d20746865207a65726f206164604482015264647265737360d81b6064820152608401610444565b6001600160a01b0382166116985760405162461bcd60e51b815260206004820152602360248201527f45524332303a207472616e7366657220746f20746865207a65726f206164647260448201526265737360e81b6064820152608401610444565b6001600160a01b038316600090815260208190526040902054818110156116d15760405162461bcd60e51b815260040161044490611bf8565b6001600160a01b03848116600081815260208181526040808320878703905593871680835291849020805487019055925185815290927fddf252ad1be2c89b69c2b068fc378daa952ba7f163c4a11628f55a4df523b3ef910160405180910390a36115cc565b6001600160a01b03821661178d5760405162461bcd60e51b815260206004820152601f60248201527f45524332303a206d696e7420746f20746865207a65726f2061646472657373006044820152606401610444565b806002600082825461179f9190611b95565b90915550506001600160a01b038216600081815260208181526040808320805486019055518481527fddf252ad1be2c89b69c2b068fc378daa952ba7f163c4a11628f55a4df523b3ef910160405180910390a35b5050565b6117f3828260405160240161180d929190611d14565b60408051601f198184030181529190526020810180516001600160e01b03166309710a9d60e41b1790526119ba565b61188383838360405160240161185493929190611d36565b60408051601f198184030181529190526020810180516001600160e01b031663969cdd0360e01b1790526119ba565b505050565b6001600160a01b0382166118e85760405162461bcd60e51b815260206004820152602160248201527f45524332303a206275726e2066726f6d20746865207a65726f206164647265736044820152607360f81b6064820152608401610444565b6001600160a01b0382166000908152602081905260409020548181101561195c5760405162461bcd60e51b815260206004820152602260248201527f45524332303a206275726e20616d6f756e7420657863656564732062616c616e604482015261636560f01b6064820152608401610444565b6001600160a01b0383166000818152602081815260408083208686039055600280548790039055518581529192917fddf252ad1be2c89b69c2b068fc378daa952ba7f163c4a11628f55a4df523b3ef910160405180910390a3505050565b80516a636f6e736f6c652e6c6f67602083016000808483855afa5050505050565b6000815180845260005b81811015611a01576020818501810151868301820152016119e5565b506000602082860101526020601f19601f83011685010191505092915050565b602081526000611a3460208301846119db565b9392505050565b80356001600160a01b0381168114610a0b57600080fd5b60008060408385031215611a6557600080fd5b611a6e83611a3b565b946020939093013593505050565b600080600060608486031215611a9157600080fd5b611a9a84611a3b565b9250611aa860208501611a3b565b9150604084013590509250925092565b600080600060608486031215611acd57600080fd5b505081359360208301359350604090920135919050565b600060208284031215611af657600080fd5b5035919050565b600060208284031215611b0f57600080fd5b611a3482611a3b565b60008060408385031215611b2b57600080fd5b611b3483611a3b565b9150611b4260208401611a3b565b90509250929050565b600181811c90821680611b5f57607f821691505b6020821081036109fb57634e487b7160e01b600052602260045260246000fd5b634e487b7160e01b600052601160045260246000fd5b808201808211156103ab576103ab611b7f565b600060208284031215611bba57600080fd5b5051919050565b6020808252601d908201527f45524332303a20696e73756666696369656e7420616c6c6f77616e6365000000604082015260600190565b60208082526026908201527f45524332303a207472616e7366657220616d6f756e7420657863656564732062604082015265616c616e636560d01b606082015260800190565b80820281158282048414176103ab576103ab611b7f565b600082611c7257634e487b7160e01b600052601260045260246000fd5b500490565b6001600160a01b039384168152919092166020820152604081019190915260600190565b600060208284031215611cad57600080fd5b81518015158114611a3457600080fd5b60208082526024908201527f52656d6f76654c6971756964697479206d696e696d756d2072657475726e2065604082015263393937b960e11b606082015260800190565b818103818111156103ab576103ab611b7f565b604081526000611d2760408301856119db565b90508260208301529392505050565b606081526000611d4960608301866119db565b6020830194909452506040015291905056fea264697066735822122097cac77a00946214846305d03398aba7489f7e79624b40d793b0a168778ea9b464736f6c63430008130033",
    "linkReferences": {}
  },
  "methodIdentifiers": {
    "addLiquidity(uint256,uint256,uint256)": "422f1043",
    "allowance(address,address)": "dd62ed3e",
    "approve(address,uint256)": "095ea7b3",
    "balanceOf(address)": "70a08231",
    "decimals()": "313ce567",
    "decreaseAllowance(address,uint256)": "a457c2d7",
    "fee_x()": "3a0dba82",
    "fee_y()": "616016ef",
    "increaseAllowance(address,uint256)": "39509351",
    "name()": "06fdde03",
    "removeLiquidity(uint256,uint256,uint256)": "857620e1",
    "reserve_x()": "ca432722",
    "reserve_y()": "39af00ba",
    "sqrt(uint256)": "677342ce",
    "swap(uint256,uint256,uint256)": "9d9892cd",
    "symbol()": "95d89b41",
    "token_liquidity_L()": "e918c908",
    "token_x()": "96ad6a31",
    "token_y()": "143cae49",
    "totalSupply()": "18160ddd",
    "transfer(address,uint256)": "a9059cbb",
    "transferFrom(address,address,uint256)": "23b872dd"
  },
  "id": 21
}