{
  "abi": [
    {
      "inputs": [
        {
          "internalType": "address",
          "name": "_tokenX",
          "type": "address"
        },
        {
          "internalType": "address",
          "name": "_tokenY",
          "type": "address"
        }
      ],
      "stateMutability": "nonpayable",
      "type": "constructor"
    },
    {
      "anonymous": false,
      "inputs": [
        {
          "indexed": true,
          "internalType": "address",
          "name": "provider",
          "type": "address"
        },
        {
          "indexed": true,
          "internalType": "uint256",
          "name": "amountX",
          "type": "uint256"
        },
        {
          "indexed": true,
          "internalType": "uint256",
          "name": "amountY",
          "type": "uint256"
        }
      ],
      "name": "AddLiquidity",
      "type": "event"
    },
    {
      "anonymous": false,
      "inputs": [
        {
          "indexed": true,
          "internalType": "address",
          "name": "owner",
          "type": "address"
        },
        {
          "indexed": true,
          "internalType": "address",
          "name": "spender",
          "type": "address"
        },
        {
          "indexed": false,
          "internalType": "uint256",
          "name": "value",
          "type": "uint256"
        }
      ],
      "name": "Approval",
      "type": "event"
    },
    {
      "anonymous": false,
      "inputs": [
        {
          "indexed": true,
          "internalType": "address",
          "name": "provider",
          "type": "address"
        },
        {
          "indexed": true,
          "internalType": "uint256",
          "name": "amountX",
          "type": "uint256"
        },
        {
          "indexed": true,
          "internalType": "uint256",
          "name": "amountY",
          "type": "uint256"
        }
      ],
      "name": "RemoveLiquidity",
      "type": "event"
    },
    {
      "anonymous": false,
      "inputs": [
        {
          "indexed": true,
          "internalType": "address",
          "name": "trader",
          "type": "address"
        },
        {
          "indexed": true,
          "internalType": "uint256",
          "name": "inputAmount",
          "type": "uint256"
        },
        {
          "indexed": true,
          "internalType": "uint256",
          "name": "outputAmount",
          "type": "uint256"
        }
      ],
      "name": "Swap",
      "type": "event"
    },
    {
      "anonymous": false,
      "inputs": [
        {
          "indexed": true,
          "internalType": "address",
          "name": "from",
          "type": "address"
        },
        {
          "indexed": true,
          "internalType": "address",
          "name": "to",
          "type": "address"
        },
        {
          "indexed": false,
          "internalType": "uint256",
          "name": "value",
          "type": "uint256"
        }
      ],
      "name": "Transfer",
      "type": "event"
    },
    {
      "inputs": [
        {
          "internalType": "uint256",
          "name": "tokenXAmount",
          "type": "uint256"
        },
        {
          "internalType": "uint256",
          "name": "tokenYAmount",
          "type": "uint256"
        },
        {
          "internalType": "uint256",
          "name": "tokenMinimumOutputAmount",
          "type": "uint256"
        }
      ],
      "name": "addLiquidity",
      "outputs": [
        {
          "internalType": "uint256",
          "name": "",
          "type": "uint256"
        }
      ],
      "stateMutability": "nonpayable",
      "type": "function"
    },
    {
      "inputs": [
        {
          "internalType": "address",
          "name": "owner",
          "type": "address"
        },
        {
          "internalType": "address",
          "name": "spender",
          "type": "address"
        }
      ],
      "name": "allowance",
      "outputs": [
        {
          "internalType": "uint256",
          "name": "",
          "type": "uint256"
        }
      ],
      "stateMutability": "view",
      "type": "function"
    },
    {
      "inputs": [
        {
          "internalType": "address",
          "name": "spender",
          "type": "address"
        },
        {
          "internalType": "uint256",
          "name": "amount",
          "type": "uint256"
        }
      ],
      "name": "approve",
      "outputs": [
        {
          "internalType": "bool",
          "name": "",
          "type": "bool"
        }
      ],
      "stateMutability": "nonpayable",
      "type": "function"
    },
    {
      "inputs": [
        {
          "internalType": "address",
          "name": "account",
          "type": "address"
        }
      ],
      "name": "balanceOf",
      "outputs": [
        {
          "internalType": "uint256",
          "name": "",
          "type": "uint256"
        }
      ],
      "stateMutability": "view",
      "type": "function"
    },
    {
      "inputs": [],
      "name": "decimals",
      "outputs": [
        {
          "internalType": "uint8",
          "name": "",
          "type": "uint8"
        }
      ],
      "stateMutability": "view",
      "type": "function"
    },
    {
      "inputs": [
        {
          "internalType": "address",
          "name": "spender",
          "type": "address"
        },
        {
          "internalType": "uint256",
          "name": "subtractedValue",
          "type": "uint256"
        }
      ],
      "name": "decreaseAllowance",
      "outputs": [
        {
          "internalType": "bool",
          "name": "",
          "type": "bool"
        }
      ],
      "stateMutability": "nonpayable",
      "type": "function"
    },
    {
      "inputs": [
        {
          "internalType": "address",
          "name": "spender",
          "type": "address"
        },
        {
          "internalType": "uint256",
          "name": "addedValue",
          "type": "uint256"
        }
      ],
      "name": "increaseAllowance",
      "outputs": [
        {
          "internalType": "bool",
          "name": "",
          "type": "bool"
        }
      ],
      "stateMutability": "nonpayable",
      "type": "function"
    },
    {
      "inputs": [
        {
          "internalType": "address",
          "name": "",
          "type": "address"
        }
      ],
      "name": "liquidity",
      "outputs": [
        {
          "internalType": "uint256",
          "name": "",
          "type": "uint256"
        }
      ],
      "stateMutability": "view",
      "type": "function"
    },
    {
      "inputs": [],
      "name": "lpToken",
      "outputs": [
        {
          "internalType": "contract ERC20",
          "name": "",
          "type": "address"
        }
      ],
      "stateMutability": "view",
      "type": "function"
    },
    {
      "inputs": [],
      "name": "name",
      "outputs": [
        {
          "internalType": "string",
          "name": "",
          "type": "string"
        }
      ],
      "stateMutability": "view",
      "type": "function"
    },
    {
      "inputs": [
        {
          "internalType": "uint256",
          "name": "LPTokenAmount",
          "type": "uint256"
        },
        {
          "internalType": "uint256",
          "name": "minimumTokenXAmount",
          "type": "uint256"
        },
        {
          "internalType": "uint256",
          "name": "minimumTokenYAmount",
          "type": "uint256"
        }
      ],
      "name": "removeLiquidity",
      "outputs": [
        {
          "internalType": "uint256",
          "name": "",
          "type": "uint256"
        },
        {
          "internalType": "uint256",
          "name": "",
          "type": "uint256"
        }
      ],
      "stateMutability": "nonpayable",
      "type": "function"
    },
    {
      "inputs": [
        {
          "internalType": "uint256",
          "name": "tokenXAmount",
          "type": "uint256"
        },
        {
          "internalType": "uint256",
          "name": "tokenYAmount",
          "type": "uint256"
        },
        {
          "internalType": "uint256",
          "name": "tokenMinimumOutputAmount",
          "type": "uint256"
        }
      ],
      "name": "swap",
      "outputs": [
        {
          "internalType": "uint256",
          "name": "",
          "type": "uint256"
        }
      ],
      "stateMutability": "nonpayable",
      "type": "function"
    },
    {
      "inputs": [],
      "name": "symbol",
      "outputs": [
        {
          "internalType": "string",
          "name": "",
          "type": "string"
        }
      ],
      "stateMutability": "view",
      "type": "function"
    },
    {
      "inputs": [],
      "name": "tokenX",
      "outputs": [
        {
          "internalType": "contract ERC20",
          "name": "",
          "type": "address"
        }
      ],
      "stateMutability": "view",
      "type": "function"
    },
    {
      "inputs": [],
      "name": "tokenY",
      "outputs": [
        {
          "internalType": "contract ERC20",
          "name": "",
          "type": "address"
        }
      ],
      "stateMutability": "view",
      "type": "function"
    },
    {
      "inputs": [],
      "name": "totalLiquidity",
      "outputs": [
        {
          "internalType": "uint256",
          "name": "",
          "type": "uint256"
        }
      ],
      "stateMutability": "view",
      "type": "function"
    },
    {
      "inputs": [],
      "name": "totalSupply",
      "outputs": [
        {
          "internalType": "uint256",
          "name": "",
          "type": "uint256"
        }
      ],
      "stateMutability": "view",
      "type": "function"
    },
    {
      "inputs": [
        {
          "internalType": "address",
          "name": "to",
          "type": "address"
        },
        {
          "internalType": "uint256",
          "name": "lpAmount",
          "type": "uint256"
        }
      ],
      "name": "transfer",
      "outputs": [
        {
          "internalType": "bool",
          "name": "",
          "type": "bool"
        }
      ],
      "stateMutability": "nonpayable",
      "type": "function"
    },
    {
      "inputs": [
        {
          "internalType": "address",
          "name": "from",
          "type": "address"
        },
        {
          "internalType": "address",
          "name": "to",
          "type": "address"
        },
        {
          "internalType": "uint256",
          "name": "amount",
          "type": "uint256"
        }
      ],
      "name": "transferFrom",
      "outputs": [
        {
          "internalType": "bool",
          "name": "",
          "type": "bool"
        }
      ],
      "stateMutability": "nonpayable",
      "type": "function"
    },
    {
      "stateMutability": "payable",
      "type": "receive"
    }
  ],
  "bytecode": {
    "object": "0x60806040523480156200001157600080fd5b5060405162001f1038038062001f108339810160408190526200003491620000f7565b6040518060400160405280600781526020016626282a37b5b2b760c91b8152506040518060400160405280600381526020016213141560ea1b8152508160039081620000819190620001d4565b506004620000908282620001d4565b5050600160055550600680546001600160a01b039384166001600160a01b0319918216179091556007805492909316918116919091179091556008805490911630179055620002a0565b80516001600160a01b0381168114620000f257600080fd5b919050565b600080604083850312156200010b57600080fd5b6200011683620000da565b91506200012660208401620000da565b90509250929050565b634e487b7160e01b600052604160045260246000fd5b600181811c908216806200015a57607f821691505b6020821081036200017b57634e487b7160e01b600052602260045260246000fd5b50919050565b601f821115620001cf57600081815260208120601f850160051c81016020861015620001aa5750805b601f850160051c820191505b81811015620001cb57828155600101620001b6565b5050505b505050565b81516001600160401b03811115620001f057620001f06200012f565b620002088162000201845462000145565b8462000181565b602080601f831160018114620002405760008415620002275750858301515b600019600386901b1c1916600185901b178555620001cb565b600085815260208120601f198616915b82811015620002715788860151825594840194600190910190840162000250565b5085821015620002905787850151600019600388901b60f8161c191681555b5050505050600190811b01905550565b611c6080620002b06000396000f3fe6080604052600436106101185760003560e01c80635fcbd285116100a0578063a457c2d711610064578063a457c2d714610393578063a9059cbb146103b3578063b7d19fc4146103d3578063b8c876b1146103f3578063dd62ed3e1461042057600080fd5b80635fcbd285146102d357806370a08231146102f3578063857620e11461032957806395d89b411461035e5780639d9892cd1461037357600080fd5b806318160ddd116100e757806318160ddd1461024257806323b872dd14610257578063313ce567146102775780633950935114610293578063422f1043146102b357600080fd5b806306fdde031461018b578063095ea7b3146101b657806315770f92146101e657806316dc165b1461020a57600080fd5b366101865760405162461bcd60e51b815260206004820152603360248201527f5468697320636f6e747261637420646f6573206e6f742061636365707420455460448201527248204f6e6c7920455243323020746f6b656e7360681b60648201526084015b60405180910390fd5b600080fd5b34801561019757600080fd5b506101a0610440565b6040516101ad9190611900565b60405180910390f35b3480156101c257600080fd5b506101d66101d136600461196a565b6104d2565b60405190151581526020016101ad565b3480156101f257600080fd5b506101fc60095481565b6040519081526020016101ad565b34801561021657600080fd5b5060065461022a906001600160a01b031681565b6040516001600160a01b0390911681526020016101ad565b34801561024e57600080fd5b506002546101fc565b34801561026357600080fd5b506101d6610272366004611994565b6104ec565b34801561028357600080fd5b50604051601281526020016101ad565b34801561029f57600080fd5b506101d66102ae36600461196a565b610512565b3480156102bf57600080fd5b506101fc6102ce3660046119d0565b610534565b3480156102df57600080fd5b5060085461022a906001600160a01b031681565b3480156102ff57600080fd5b506101fc61030e3660046119fc565b6001600160a01b031660009081526020819052604090205490565b34801561033557600080fd5b506103496103443660046119d0565b610aa7565b604080519283526020830191909152016101ad565b34801561036a57600080fd5b506101a0610e43565b34801561037f57600080fd5b506101fc61038e3660046119d0565b610e52565b34801561039f57600080fd5b506101d66103ae36600461196a565b6111a1565b3480156103bf57600080fd5b506101d66103ce36600461196a565b611227565b3480156103df57600080fd5b5060075461022a906001600160a01b031681565b3480156103ff57600080fd5b506101fc61040e3660046119fc565b600a6020526000908152604090205481565b34801561042c57600080fd5b506101fc61043b366004611a17565b61123c565b60606003805461044f90611a4a565b80601f016020809104026020016040519081016040528092919081815260200182805461047b90611a4a565b80156104c85780601f1061049d576101008083540402835291602001916104c8565b820191906000526020600020905b8154815290600101906020018083116104ab57829003601f168201915b5050505050905090565b6000336104e0818585611267565b60019150505b92915050565b6000336104fa85828561138c565b6105058585856113d6565b60019150505b9392505050565b6000336104e0818585610525838361123c565b61052f9190611a9a565b611267565b600061053e61153b565b60008411801561054e5750600083115b61056a5760405162461bcd60e51b815260040161017d90611aad565b600654604051636eb1769f60e11b815233600482015230602482015285916001600160a01b03169063dd62ed3e90604401602060405180830381865afa1580156105b8573d6000803e3d6000fd5b505050506040513d601f19601f820116820180604052508101906105dc9190611aef565b10156105fa5760405162461bcd60e51b815260040161017d90611b08565b600754604051636eb1769f60e11b815233600482015230602482015284916001600160a01b03169063dd62ed3e90604401602060405180830381865afa158015610648573d6000803e3d6000fd5b505050506040513d601f19601f8201168201806040525081019061066c9190611aef565b101561068a5760405162461bcd60e51b815260040161017d90611b08565b6006546040516370a0823160e01b815233600482015285916001600160a01b0316906370a0823190602401602060405180830381865afa1580156106d2573d6000803e3d6000fd5b505050506040513d601f19601f820116820180604052508101906106f69190611aef565b10156107145760405162461bcd60e51b815260040161017d90611b3f565b6007546040516370a0823160e01b815233600482015284916001600160a01b0316906370a0823190602401602060405180830381865afa15801561075c573d6000803e3d6000fd5b505050506040513d601f19601f820116820180604052508101906107809190611aef565b101561079e5760405162461bcd60e51b815260040161017d90611b3f565b60008060008060006009546000036107ee576107c26107bd898b611b85565b611594565b9450868510156107e45760405162461bcd60e51b815260040161017d90611b9c565b6009859055610940565b6006546040516370a0823160e01b81523060048201526001600160a01b03909116906370a0823190602401602060405180830381865afa158015610836573d6000803e3d6000fd5b505050506040513d601f19601f8201168201806040525081019061085a9190611aef565b6007546040516370a0823160e01b81523060048201529195506001600160a01b0316906370a0823190602401602060405180830381865afa1580156108a3573d6000803e3d6000fd5b505050506040513d601f19601f820116820180604052508101906108c79190611aef565b92506108de6108d88a6009546115d1565b85611653565b91506108f56108ef896009546115d1565b84611653565b90508082106109045780610906565b815b9450868510156109285760405162461bcd60e51b815260040161017d90611b9c565b846009600082825461093a9190611a9a565b90915550505b336000908152600a60205260408120805487929061095f908490611a9a565b90915550506006546040516323b872dd60e01b8152336004820152306024820152604481018b90526001600160a01b03909116906323b872dd906064016020604051808303816000875af11580156109bb573d6000803e3d6000fd5b505050506040513d601f19601f820116820180604052508101906109df9190611bd3565b506007546040516323b872dd60e01b8152336004820152306024820152604481018a90526001600160a01b03909116906323b872dd906064016020604051808303816000875af1158015610a37573d6000803e3d6000fd5b505050506040513d601f19601f82011682018060405250810190610a5b9190611bd3565b50610a663386611227565b5060405188908a9033907f06239653922ac7bea6aa2b19dc486b9361821d37712eb796adfd38d81de278ca90600090a45092935050505061050b6001600555565b600080610ab261153b565b60008511610ad25760405162461bcd60e51b815260040161017d90611aad565b336000908152600a6020526040902054851115610b275760405162461bcd60e51b8152602060048201526013602482015272333334b1b4b2b73a103634b8bab4b234ba3c9760691b604482015260640161017d565b6008546040516370a0823160e01b815233600482015286916001600160a01b0316906370a0823190602401602060405180830381865afa158015610b6f573d6000803e3d6000fd5b505050506040513d601f19601f82011682018060405250810190610b939190611aef565b1015610bd75760405162461bcd60e51b815260206004820152601360248201527224b739bab33334b1b4b2b73a103a37b5b2b71760691b604482015260640161017d565b6006546040516370a0823160e01b8152306004820152600091610c5e91610c569189916001600160a01b03909116906370a08231906024015b602060405180830381865afa158015610c2d573d6000803e3d6000fd5b505050506040513d601f19601f82011682018060405250810190610c519190611aef565b6115d1565b600954611653565b6007546040516370a0823160e01b8152306004820152919250600091610c9c91610c56918a916001600160a01b0316906370a0823190602401610c10565b9050858210158015610cae5750848110155b610cca5760405162461bcd60e51b815260040161017d90611b9c565b336000908152600a602052604081208054899290610ce9908490611bf5565b925050819055508660096000828254610d029190611bf5565b909155505060065460405163a9059cbb60e01b8152336004820152602481018490526001600160a01b039091169063a9059cbb906044016020604051808303816000875af1158015610d58573d6000803e3d6000fd5b505050506040513d601f19601f82011682018060405250810190610d7c9190611bd3565b5060075460405163a9059cbb60e01b8152336004820152602481018390526001600160a01b039091169063a9059cbb906044016020604051808303816000875af1158015610dce573d6000803e3d6000fd5b505050506040513d601f19601f82011682018060405250810190610df29190611bd3565b50610dfd33886116b8565b6040518190839033907f0fbf06c058b90cb038a618f8c2acbf6145f8b3570fd1fa56abb8f0f3f05b36e890600090a49092509050610e3b6001600555565b935093915050565b60606004805461044f90611a4a565b6000610e5c61153b565b831580610e67575082155b610ec45760405162461bcd60e51b815260206004820152602860248201527f4f6e6c79206f6e6520746f6b656e2063616e20626520737761707065642061746044820152671030903a34b6b29760c11b606482015260840161017d565b60008080808715610eec5750506006546007548793506001600160a01b039182169116610f05565b50506007546006548693506001600160a01b0391821691165b6040516370a0823160e01b81523060048201526000906001600160a01b038416906370a0823190602401602060405180830381865afa158015610f4c573d6000803e3d6000fd5b505050506040513d601f19601f82011682018060405250810190610f709190611aef565b6040516370a0823160e01b81523060048201529091506000906001600160a01b038416906370a0823190602401602060405180830381865afa158015610fba573d6000803e3d6000fd5b505050506040513d601f19601f82011682018060405250810190610fde9190611aef565b90506000610fee876103e76115d1565b90506000610ffc82846115d1565b9050600061101561100f866103e86115d1565b846117e2565b90506110218282611653565b97508a8810156110735760405162461bcd60e51b815260206004820152601d60248201527f4d696e696d756d206f757470757420616d6f756e74206e6f74206d6574000000604482015260640161017d565b6040516323b872dd60e01b8152336004820152306024820152604481018a90526001600160a01b038816906323b872dd906064016020604051808303816000875af11580156110c6573d6000803e3d6000fd5b505050506040513d601f19601f820116820180604052508101906110ea9190611bd3565b5060405163a9059cbb60e01b8152336004820152602481018990526001600160a01b0387169063a9059cbb906044016020604051808303816000875af1158015611138573d6000803e3d6000fd5b505050506040513d601f19601f8201168201806040525081019061115c9190611bd3565b5060405188908a9033907f77f92a1b6a1a11de8ca49515ad4c1fad45632dd3442167d74b90b304a3c7a75890600090a4509597505050505050505061050b6001600555565b600033816111af828661123c565b90508381101561120f5760405162461bcd60e51b815260206004820152602560248201527f45524332303a2064656372656173656420616c6c6f77616e63652062656c6f77604482015264207a65726f60d81b606482015260840161017d565b61121c8286868403611267565b506001949350505050565b60006112338383611841565b50600192915050565b6001600160a01b03918216600090815260016020908152604080832093909416825291909152205490565b6001600160a01b0383166112c95760405162461bcd60e51b8152602060048201526024808201527f45524332303a20617070726f76652066726f6d20746865207a65726f206164646044820152637265737360e01b606482015260840161017d565b6001600160a01b03821661132a5760405162461bcd60e51b815260206004820152602260248201527f45524332303a20617070726f766520746f20746865207a65726f206164647265604482015261737360f01b606482015260840161017d565b6001600160a01b0383811660008181526001602090815260408083209487168084529482529182902085905590518481527f8c5be1e5ebec7d5bd14f71427d1e84f3dd0314c0f7b2291e5b200ac8c7c3b92591015b60405180910390a3505050565b6000611398848461123c565b905060001981146113d057818110156113c35760405162461bcd60e51b815260040161017d90611b08565b6113d08484848403611267565b50505050565b6001600160a01b03831661143a5760405162461bcd60e51b815260206004820152602560248201527f45524332303a207472616e736665722066726f6d20746865207a65726f206164604482015264647265737360d81b606482015260840161017d565b6001600160a01b03821661149c5760405162461bcd60e51b815260206004820152602360248201527f45524332303a207472616e7366657220746f20746865207a65726f206164647260448201526265737360e81b606482015260840161017d565b6001600160a01b038316600090815260208190526040902054818110156114d55760405162461bcd60e51b815260040161017d90611b3f565b6001600160a01b03848116600081815260208181526040808320878703905593871680835291849020805487019055925185815290927fddf252ad1be2c89b69c2b068fc378daa952ba7f163c4a11628f55a4df523b3ef910160405180910390a36113d0565b60026005540361158d5760405162461bcd60e51b815260206004820152601f60248201527f5265656e7472616e637947756172643a207265656e7472616e742063616c6c00604482015260640161017d565b6002600555565b6000806115ac6115a58460016117e2565b6002611653565b9050825b8082101561050b5750806115ca6115a561100f8684611653565b91506115b0565b6000826000036115e3575060006104e6565b60006115ef8385611b85565b9050826115fc8583611c08565b1461050b5760405162461bcd60e51b815260206004820152602160248201527f536166654d6174683a206d756c7469706c69636174696f6e206f766572666c6f6044820152607760f81b606482015260840161017d565b60008082116116a45760405162461bcd60e51b815260206004820152601a60248201527f536166654d6174683a206469766973696f6e206279207a65726f000000000000604482015260640161017d565b60006116b08385611c08565b949350505050565b6001600160a01b0382166117185760405162461bcd60e51b815260206004820152602160248201527f45524332303a206275726e2066726f6d20746865207a65726f206164647265736044820152607360f81b606482015260840161017d565b6001600160a01b0382166000908152602081905260409020548181101561178c5760405162461bcd60e51b815260206004820152602260248201527f45524332303a206275726e20616d6f756e7420657863656564732062616c616e604482015261636560f01b606482015260840161017d565b6001600160a01b0383166000818152602081815260408083208686039055600280548790039055518581529192917fddf252ad1be2c89b69c2b068fc378daa952ba7f163c4a11628f55a4df523b3ef910161137f565b6000806117ef8385611a9a565b90508381101561050b5760405162461bcd60e51b815260206004820152601b60248201527f536166654d6174683a206164646974696f6e206f766572666c6f770000000000604482015260640161017d565b6001600160a01b0382166118975760405162461bcd60e51b815260206004820152601f60248201527f45524332303a206d696e7420746f20746865207a65726f206164647265737300604482015260640161017d565b80600260008282546118a99190611a9a565b90915550506001600160a01b038216600081815260208181526040808320805486019055518481527fddf252ad1be2c89b69c2b068fc378daa952ba7f163c4a11628f55a4df523b3ef910160405180910390a35050565b600060208083528351808285015260005b8181101561192d57858101830151858201604001528201611911565b506000604082860101526040601f19601f8301168501019250505092915050565b80356001600160a01b038116811461196557600080fd5b919050565b6000806040838503121561197d57600080fd5b6119868361194e565b946020939093013593505050565b6000806000606084860312156119a957600080fd5b6119b28461194e565b92506119c06020850161194e565b9150604084013590509250925092565b6000806000606084860312156119e557600080fd5b505081359360208301359350604090920135919050565b600060208284031215611a0e57600080fd5b61050b8261194e565b60008060408385031215611a2a57600080fd5b611a338361194e565b9150611a416020840161194e565b90509250929050565b600181811c90821680611a5e57607f821691505b602082108103611a7e57634e487b7160e01b600052602260045260246000fd5b50919050565b634e487b7160e01b600052601160045260246000fd5b808201808211156104e6576104e6611a84565b60208082526022908201527f416d6f756e7473206d7573742062652067726561746572207468616e207a6572604082015261379760f11b606082015260800190565b600060208284031215611b0157600080fd5b5051919050565b6020808252601d908201527f45524332303a20696e73756666696369656e7420616c6c6f77616e6365000000604082015260600190565b60208082526026908201527f45524332303a207472616e7366657220616d6f756e7420657863656564732062604082015265616c616e636560d01b606082015260800190565b80820281158282048414176104e6576104e6611a84565b6020808252601a908201527f4d696e696d756d206c6971756964697479206e6f74206d65742e000000000000604082015260600190565b600060208284031215611be557600080fd5b8151801515811461050b57600080fd5b818103818111156104e6576104e6611a84565b600082611c2557634e487b7160e01b600052601260045260246000fd5b50049056fea26469706673582212209a6eca582da8057e6c79802e59d24e2c985acd717c2365bb79e835c278c1e9fc64736f6c63430008130033",
    "linkReferences": {}
  },
  "methodIdentifiers": {
    "addLiquidity(uint256,uint256,uint256)": "422f1043",
    "allowance(address,address)": "dd62ed3e",
    "approve(address,uint256)": "095ea7b3",
    "balanceOf(address)": "70a08231",
    "decimals()": "313ce567",
    "decreaseAllowance(address,uint256)": "a457c2d7",
    "increaseAllowance(address,uint256)": "39509351",
    "liquidity(address)": "b8c876b1",
    "lpToken()": "5fcbd285",
    "name()": "06fdde03",
    "removeLiquidity(uint256,uint256,uint256)": "857620e1",
    "swap(uint256,uint256,uint256)": "9d9892cd",
    "symbol()": "95d89b41",
    "tokenX()": "16dc165b",
    "tokenY()": "b7d19fc4",
    "totalLiquidity()": "15770f92",
    "totalSupply()": "18160ddd",
    "transfer(address,uint256)": "a9059cbb",
    "transferFrom(address,address,uint256)": "23b872dd"
  },
  "id": 10
}