{
  "abi": [
    {
      "anonymous": false,
      "inputs": [
        {
          "indexed": false,
          "internalType": "string",
          "name": "message",
          "type": "string"
        },
        {
          "indexed": false,
          "internalType": "string",
          "name": "function_name",
          "type": "string"
        }
      ],
      "name": "Input",
      "type": "event"
    },
    {
      "anonymous": false,
      "inputs": [
        {
          "indexed": false,
          "internalType": "string",
          "name": "message",
          "type": "string"
        },
        {
          "indexed": false,
          "internalType": "bytes4",
          "name": "function_signature",
          "type": "bytes4"
        }
      ],
      "name": "Output",
      "type": "event"
    },
    {
      "inputs": [
        {
          "internalType": "string",
          "name": "name",
          "type": "string"
        }
      ],
      "name": "run",
      "outputs": [],
      "stateMutability": "nonpayable",
      "type": "function"
    }
  ],
  "bytecode": {
    "object": "0x608060405234801561001057600080fd5b5061032f806100206000396000f3fe608060405234801561001057600080fd5b506004361061002b5760003560e01c80639352fad214610030575b600080fd5b61004361003e3660046101ba565b610045565b005b60008180519060200120905061007d6040518060400160405280600a8152602001695b494e5055545d0a257360b01b815250836100b3565b6100a6604051806040016040528060088152602001675b4f55545055545d60c01b8152506100f8565b6100af8161013e565b5050565b6100af82826040516024016100c99291906102b1565b60408051601f198184030181529190526020810180516001600160e01b0316634b5c427760e01b179052610183565b61013b8160405160240161010c91906102df565b60408051601f198184030181529190526020810180516001600160e01b031663104c13eb60e21b179052610183565b50565b6040516001600160e01b03198216602482015261013b9060440160408051601f198184030181529190526020810180516001600160e01b031663e05f48d160e01b1790525b80516a636f6e736f6c652e6c6f67602083016000808483855afa5050505050565b634e487b7160e01b600052604160045260246000fd5b6000602082840312156101cc57600080fd5b813567ffffffffffffffff808211156101e457600080fd5b818401915084601f8301126101f857600080fd5b81358181111561020a5761020a6101a4565b604051601f8201601f19908116603f01168101908382118183101715610232576102326101a4565b8160405282815287602084870101111561024b57600080fd5b826020860160208301376000928101602001929092525095945050505050565b6000815180845260005b8181101561029157602081850181015186830182015201610275565b506000602082860101526020601f19601f83011685010191505092915050565b6040815260006102c4604083018561026b565b82810360208401526102d6818561026b565b95945050505050565b6020815260006102f2602083018461026b565b939250505056fea2646970667358221220026c74477f4978fa91b6c338025e271b49758d29127107630c09b0c4d4275ecf64736f6c63430008130033",
    "linkReferences": {}
  },
  "methodIdentifiers": {
    "run(string)": "9352fad2"
  },
  "id": 1
}