{
  "abi": [
    {
      "inputs": [
        {
          "internalType": "contract IPriceOracle",
          "name": "_oracle",
          "type": "address"
        },
        {
          "internalType": "address",
          "name": "_usdc",
          "type": "address"
        }
      ],
      "stateMutability": "nonpayable",
      "type": "constructor"
    },
    {
      "inputs": [
        {
          "internalType": "address",
          "name": "tokenAddress",
          "type": "address"
        },
        {
          "internalType": "uint256",
          "name": "amount",
          "type": "uint256"
        }
      ],
      "name": "borrow",
      "outputs": [],
      "stateMutability": "nonpayable",
      "type": "function"
    },
    {
      "inputs": [
        {
          "internalType": "address",
          "name": "tokenAddress",
          "type": "address"
        },
        {
          "internalType": "uint256",
          "name": "amount",
          "type": "uint256"
        }
      ],
      "name": "deposit",
      "outputs": [],
      "stateMutability": "payable",
      "type": "function"
    },
    {
      "inputs": [
        {
          "internalType": "address",
          "name": "_usdc",
          "type": "address"
        }
      ],
      "name": "getAccruedSupplyAmount",
      "outputs": [
        {
          "internalType": "uint256",
          "name": "",
          "type": "uint256"
        }
      ],
      "stateMutability": "payable",
      "type": "function"
    },
    {
      "inputs": [
        {
          "internalType": "address",
          "name": "_usdc",
          "type": "address"
        }
      ],
      "name": "initializeLendingProtocol",
      "outputs": [],
      "stateMutability": "payable",
      "type": "function"
    },
    {
      "inputs": [
        {
          "internalType": "address",
          "name": "user",
          "type": "address"
        },
        {
          "internalType": "address",
          "name": "tokenAddress",
          "type": "address"
        },
        {
          "internalType": "uint256",
          "name": "amount",
          "type": "uint256"
        }
      ],
      "name": "liquidate",
      "outputs": [],
      "stateMutability": "nonpayable",
      "type": "function"
    },
    {
      "inputs": [
        {
          "internalType": "address",
          "name": "tokenAddress",
          "type": "address"
        },
        {
          "internalType": "uint256",
          "name": "amount",
          "type": "uint256"
        }
      ],
      "name": "repay",
      "outputs": [],
      "stateMutability": "nonpayable",
      "type": "function"
    },
    {
      "inputs": [
        {
          "internalType": "address",
          "name": "tokenAddress",
          "type": "address"
        },
        {
          "internalType": "uint256",
          "name": "amount",
          "type": "uint256"
        }
      ],
      "name": "withdraw",
      "outputs": [],
      "stateMutability": "nonpayable",
      "type": "function"
    }
  ],
  "bytecode": {
    "object": "0x608060405260646000556032600155604b60025534801561001f57600080fd5b506040516107e43803806107e483398101604081905261003e91610087565b600380546001600160a01b039384166001600160a01b031991821617909155600480549290931691161790556100c1565b6001600160a01b038116811461008457600080fd5b50565b6000806040838503121561009a57600080fd5b82516100a58161006f565b60208401519092506100b68161006f565b809150509250929050565b610714806100d06000396000f3fe6080604052600436106100705760003560e01c80634b8a35291161004e5780634b8a3529146100c957806353415e44146100e95780638f1e97791461010f578063f3fef3a31461012257600080fd5b806322867d781461007557806326c013031461009657806347e7ef24146100b6575b600080fd5b34801561008157600080fd5b506100946100903660046105ef565b5050565b005b3480156100a257600080fd5b506100946100b1366004610619565b505050565b6100946100c43660046105ef565b610142565b3480156100d557600080fd5b506100946100e43660046105ef565b6102b9565b6100fd6100f7366004610655565b50600090565b60405190815260200160405180910390f35b61009461011d366004610655565b610348565b34801561012e57600080fd5b5061009461013d3660046105ef565b610404565b6000811161018d5760405162461bcd60e51b8152602060048201526013602482015272125d081a5cc81b9bdd081959999a5cda595b9d606a1b60448201526064015b60405180910390fd5b6001600160a01b03821661021857803410156101eb5760405162461bcd60e51b815260206004820181905260248201527f796f75722073656e642076616c7565206d6f7265207468616e20616d6f756e746044820152606401610184565b336000908152600560205260408120600201805483929061020d90849061068d565b909155506100909050565b336000908152600560205260408120805483929061023790849061068d565b9091555050600480546040516323b872dd60e01b81523392810192909252306024830152604482018390526001600160a01b0316906323b872dd906064015b6020604051808303816000875af1158015610295573d6000803e3d6000fd5b505050506040513d601f19601f820116820180604052508101906100b191906106a5565b600081116102f75760405162461bcd60e51b815260206004820152600b60248201526a189bdc9c9bddc819985a5b60aa1b6044820152606401610184565b6004546001600160a01b038381169116146100905760405162461bcd60e51b81526020600482015260116024820152706f6e6c792075736463206164647265737360781b6044820152606401610184565b600034116103885760405162461bcd60e51b815260206004820152600d60248201526c1b9bdd081959999a58da595b9d609a1b6044820152606401610184565b600480546040516323b872dd60e01b81523392810192909252306024830152600160448301526001600160a01b0316906323b872dd906064016020604051808303816000875af11580156103e0573d6000803e3d6000fd5b505050506040513d601f19601f8201168201806040525081019061009091906106a5565b600081116104545760405162461bcd60e51b815260206004820181905260248201527f416d6f756e74206d7573742062652067726561746572207468616e207a65726f6044820152606401610184565b6001600160a01b03821661051857336000908152600560205260409020600201548111156104c45760405162461bcd60e51b815260206004820152601b60248201527f496e73756666696369656e742045544820636f6c6c61746572616c00000000006044820152606401610184565b33600090815260056020526040812060020180548392906104e69084906106c7565b9091555050604051339082156108fc029083906000818181858888f193505050501580156100b1573d6000803e3d6000fd5b336000908152600560205260409020548111156105775760405162461bcd60e51b815260206004820152601960248201527f496e73756666696369656e7420555344432062616c616e6365000000000000006044820152606401610184565b33600090815260056020526040812080548392906105969084906106c7565b90915550506004805460405163a9059cbb60e01b81523392810192909252602482018390526001600160a01b03169063a9059cbb90604401610276565b80356001600160a01b03811681146105ea57600080fd5b919050565b6000806040838503121561060257600080fd5b61060b836105d3565b946020939093013593505050565b60008060006060848603121561062e57600080fd5b610637846105d3565b9250610645602085016105d3565b9150604084013590509250925092565b60006020828403121561066757600080fd5b610670826105d3565b9392505050565b634e487b7160e01b600052601160045260246000fd5b600082198211156106a0576106a0610677565b500190565b6000602082840312156106b757600080fd5b8151801515811461067057600080fd5b6000828210156106d9576106d9610677565b50039056fea2646970667358221220d19bc36406ecbb1a53a5e64331d5561b336c488a5453d548207c4a113e53b0dd64736f6c634300080d0033",
    "linkReferences": {}
  },
  "methodIdentifiers": {
    "borrow(address,uint256)": "4b8a3529",
    "deposit(address,uint256)": "47e7ef24",
    "getAccruedSupplyAmount(address)": "53415e44",
    "initializeLendingProtocol(address)": "8f1e9779",
    "liquidate(address,address,uint256)": "26c01303",
    "repay(address,uint256)": "22867d78",
    "withdraw(address,uint256)": "f3fef3a3"
  },
  "id": 13
}